:020000040000FA
:1000000020260020512300002D830000B123000092
:10001000B1230000B1230000B1230000B123000090
:10002000000000000000000000000000352100007A
:10003000B123000000000000DD2000009D1800003A
:1000400011230000112300001123000011230000E0
:1000500011230000112300001123000011230000D0
:1000600011230000112300001123000011230000C0
:1000700011230000112300001123000011230000B0
:1000800011230000112300001123000011230000A0
:100090001123000011230000112300001123000090
:1000A0001123000011230000112300001123000080
:1000B0001123000011230000112300001123000070
:1000C0001123000011230000112300001123000060
:1000D0001123000011230000112300001123000050
:1000E0001123000011230000112300001123000040
:1000F0001123000011230000112300001123000030
:10010000112300001123000011230000112300001F
:10011000112300001123000011230000112300000F
:1001200011230000112300001123000011230000FF
:1001300011230000112300001123000011230000EF
:10014000112300000000000000000000000000007B
:10015000000000000000000000000000000000009F
:10016000000000000000000000000000000000008F
:10017000000000000000000000000000000000007F
:10018000000000000000000000000000000000006F
:10019000000000000000000000000000000000005F
:1001A000000000000000000000000000000000004F
:1001B000000000000000000000000000000000003F
:1001C000000000000000000000000000000000002F
:1001D000000000000000000000000000000000001F
:1001E000000000000000000000000000000000000F
:1001F00000000000000000000000000000000000FF
:10020000DEE61E284CBBCE8F025B00003C000000E7
:1002100000000100010000000000000000000000DC
:10022000FFFF02910000000000000000000000003D
:1002300000000000000000000000000053B94AB9AF
:10024000002908BF00281CBF4FF0FF314FF0FF30DE
:1002500000F00CB8ADF1080C6DE904CE00F024F804
:10026000DDF804E0DDE9022304B07047704700BF09
:100270002DE9E04F2746A046A146A246A346A44644
:10028000A2B02DEC000A84F3008825462646A44738
:10029000EFF3148515F0080F18BFB0EE400A3DECDF
:1002A000000A22B0BDE8E08F2DE9F04786468C4673
:1002B0000846089E154674461946002B40F0C1803A
:1002C0008542B2FA82F245D94AB1C2F1200300FA5E
:1002D00002FC954094402EFA03F343EA0C0C4FEADB
:1002E000154EA8B2230CBCFBFEF80EFB18CC08FB85
:1002F00000F943EA0C43994528D9EB1808F1FF3778
:1003000004D2994502D9A8F102072B44A3EB0903B3
:10031000A4B2B3FBFEFC0EFB1C330CFB00F044EA62
:100320000344A04214D92C190CF1FF3304D2A0428B
:1003300002D9ACF102032C44241A43EA07401EB14F
:10034000D440002334607360BDE8F0874746DDE7A2
:100350006346F1E792BB431B01214FEA154EAFB252
:10036000200CB3FBFEFC0EFB1C330CFB07F840EA31
:100370000343984561D9EB180CF1FF3004D298453E
:1003800002D9ACF102002B44A3EB0803A4B2B3FBE7
:10039000FEFC0EFB1C330CFB07F744EA0344A742A8
:1003A0004DD92C190CF1FF3304D2A74202D9ACF17C
:1003B00002032C44E41B43EA0040C0E7C2F12003DF
:1003C0009540944020FA03F12EFA03F34FEA154EBC
:1003D0009040AFB20343B1FBFEFC0EFB1C10190CA6
:1003E0000CFB07F841EA0041884522D969180CF155
:1003F000FF3004D2884502D9ACF102002944A1EBB8
:1004000008019BB2B1FBFEFC0EFB1C110CFB07F7B5
:1004100043EA01439F420ED9EB180CF1FF3104D29D
:100420009F4202D9ACF102012B44DB1B41EA00419F
:1004300093E76046E3E76146F7E76046A4E7634673
:10044000B8E7834206D916B9002108467CE7C6E919
:1004500000E0F9E7B3FA83F78FB9834201D372451D
:1004600008D8BEEB020460EB030301209C461EB9D2
:10047000002169E73846FAE7C6E9004CF8E7C7F11A
:10048000200CBB400EFA07F522FA0CF42EFA0CF100
:10049000BA401C4320FA0CF3B8404FEA1449014318
:1004A0001FFA84FEB3FBF9F809FB18300B0C08FBAC
:1004B0000EFA43EA00439A4540D9E31808F1FF30A9
:1004C00004D29A4502D9A8F102002344A3EB0A03FF
:1004D00089B2B3FBF9F809FB183308FB0EFE41EAB9
:1004E00003418E452CD9611808F1FF3304D28E45A3
:1004F00002D9A8F10203214443EA0040A1EB0E0116
:10050000A0FB02984145CE46434602D306D14D4555
:1005100004D20138B9EB020E68EB0403002EA7D019
:10052000B5EB0E0261EB030101FA0CFC22FA07F3B2
:10053000F9404CEA0303C6E9003199E74046C5E7B4
:100540004346D9E7436810B503F00303032B044681
:10055000816002D02BB1002000E0006800236360BE
:1005600010BD45220449054807F059FD45210248C0
:1005700007F01EFEEFE700BF138E0000368E00006E
:100580000B6801330B60014B1B681847000000200B
:10059000014B1860704700BF0000002007B50B46F4
:1005A000002102460191034801A900F09BFA03B023
:1005B0005DF804FB810500002DE9F84F858B0446AA
:1005C0002B07174661D4022905F0070500F0C48106
:1005D000AA46D4F81890A38BB9F1000F70DA002264
:1005E000D4F8008023F00703C4E9002243F001039C
:1005F000A383A38B002603F00705554540F07E81B9
:100600004FF0000AB8F1000F00F0E18043F008035A
:1006100004F1140B5846A38303F014FB40B9B1490D
:10062000B148AC2207F0FBFCAC21AE4807F0C0FD9E
:1006300087F31188BFF36F8FBAF1000F40F0658127
:10064000B8F1000F40F0768116B12046A749B047B7
:100650004FF02003EFF3118783F31188BFF36F8FFF
:10066000584603F0E1FA40B99E499F48812207F0BD
:10067000D6FC81219B4807F09BFD584603F0F0FA19
:10068000A38B23F00803A38356E001290CBF45F098
:10069000100545F02005858304F1140003F0D2FA1B
:1006A00040B990499048AC2207F0B9FCAC218D4884
:1006B00007F07EFD87F31188BFF36F8FBDE8F88FD9
:1006C00003F00702511F012921D80021062AD4F87E
:1006D0000080C4E9001116D1424603E0E18B1268A4
:1006E0000131E183002AF9D123F0070343F002022C
:1006F0002046A28307F0A0FC00283FF47AAF42F026
:100700002002A28375E723F007039AB2F0E7042AD8
:100710001ED123F007039AB22046A28307F08CFC77
:1007200010B142F02002A2830026A38BB04603F052
:100730000705554540F0E280B4F81CA01AF0100FF0
:1007400000F001812AF01003A3830AF0070A40E7B2
:1007500040F21B126649644807F061FC40F21B112D
:10076000634807F025FDDFE755B161495E484FF466
:10077000AB7207F054FC4FF4AB715D4807F018FD05
:10078000236853B95A49584840F2571207F047FCBA
:1007900040F25711564807F00BFD23691E6856B901
:1007A000534951484FF4AD7207F039FC4FF4AD7125
:1007B0004F4807F0FDFCA38B062D23F0070343F001
:1007C00006039BB2A38340F095804FF000094FF0E1
:1007D000000AD046002E7FF419AFADE7022D0AD0F3
:1007E0004349414840F25D1207F019FC40F25D11A7
:1007F0003F4807F0DDFCE38B53B13D493A484FF4E5
:10080000AF7207F00CFC4FF4AF71394807F0D0FC21
:1008100023695E6856B93649334840F2611207F0E1
:10082000FEFB40F26111324807F0C2FCA38B042D9D
:1008300023F0070343F004039BB2A383C5D04FF01A
:1008400000080425C14659E0012D0AD02849264850
:100850004FF4B27207F0E3FB4FF4B271244807F093
:10086000A7FC236853B922491F4840F2651207F0DC
:10087000D6FB40F265111E4807F09AFC23699E687A
:1008800056B91B4918484FF4B47207F0C8FB4FF42F
:10089000B471174807F08CFCA38B052D23F00703D8
:1008A00043F005039BB2A3838FD04FF000080525CA
:1008B000C14623E040F26B120D490B4807F0AFFB35
:1008C00040F26B110A4807F073FCA38B03F0070298
:1008D000AA423FF431AF4FF0000815464646C146E4
:1008E0000CE000BF708E0000368E0000850900000D
:1008F0004E8E00004FF000080625C146A268002A6F
:100900003FF47EAE4FF0010A80E6A16800293FF473
:1009100097AE0F6800293FF493AE4B462A46204617
:10092000D1F804A0D0471FB13B6839461F46F1E714
:100930003B46FAE741464B462A462046D8F8008017
:1009400007F0A6FB7CE61AF0200F3FF4A5AE2AF0D4
:100950002003A3830AF00705204607F06DFB00285B
:100960003FF49AAE01380428A4D801A353F820F02C
:10097000D1050000B508000069070000DD07000090
:1009800049080000F8B504460D4600F114064FF082
:100990002003EFF3118783F31188BFF36F8F304685
:1009A00003F042F940B90A490A48812207F037FBAF
:1009B0008121074807F0FCFB304603F051F93A4625
:1009C0002046A5610121BDE8F840FFF7F5BD00BF55
:1009D000708E0000368E00002DE9F04704460F4669
:1009E00007F046FB051E6DDB04F114094FF02003F0
:1009F000EFF3118A83F31188BFF36F8F484603F03A
:100A000013F940B934493548812207F008FB8121A8
:100A1000314807F0CDFB484603F022F94FF6FF724C
:100A2000E38BA68B934206F007064ED0022E1FD111
:100A300035464FF001080133E383484603F002F9DD
:100A400040B925492548AC2207F0E9FAAC212248F3
:100A500007F0AEFB8AF31188BFF36F8FB8F1000F78
:100A600030D0002332463946204607F011FB29E0FA
:100A7000062E0ED8DFE806F004180D0D042C040035
:100A800000233B606368A3B9C4E90077A6B135468B
:100A90000CE01349114840F2C91207F0C0FA40F2C5
:100AA000C9110F4807F084FB6FF004054FF00008F0
:100AB000C3E71F606760E9E7524602212046FFF75F
:100AC0007BFD35462846BDE8F0876FF00A05EDE767
:100AD0006FF08505EAE700BF708E0000368E0000DB
:100AE0004E8E00002DE9F04F81468B4617461C467E
:100AF000002595B0387808B9284657E37B1C25288F
:100B0000039306D05946C8470028C0F24F830135E9
:100B100004E2182200210EA807F06BFC7B78252B3D
:100B20007DD0002398469E469C461E46781C014672
:100B300010F8012B2B2A00F0A18000F29880202AC7
:100B400000F09F80232A00F09F802BB19DF8403059
:100B500043F040038DF84030B8F1000F05D09DF808
:100B6000403043F020038DF84030BEF1000F05D037
:100B70009DF8403043F010038DF84030BCF1000F79
:100B800005D09DF8403043F008038DF840302EB179
:100B90009DF8403043F004038DF840309DF840301C
:100BA00003F04400442803D16FF386138DF84030DE
:100BB0009DF840302A2A43F080038DF840307FD1E1
:100BC0009DF841204B1C42F001028DF841201A781B
:100BD0002E2A0CBF012100219DF8412061F3410222
:100BE0008DF8412078D15A782A2A6ED000224FF011
:100BF0000A0C0133194611F8010BA0F13006092E39
:100C000040F295809DF840101292C1F3400040EAF6
:100C1000D2700A4660F341028DF840205CE0BA1CB5
:100C200003928DF843309DF84130DA0740F12E8170
:100C300054F8048BB8F1000F07DA9DF84020C8F192
:100C4000000842F004028DF840205E0740F1278141
:100C500054F804ABBAF1000F80F226819DF84130C0
:100C60006FF341038DF841304FF0FF3A1CE12D2A1C
:100C70000DD0302A7FF469AF012358E74FF0010C03
:100C800055E74FF0010E52E74FF001084FE70126FC
:100C90004DE703460EFB0262303A184610F8016B2E
:100CA000A6F1300CBCF1090FF3D999428FD09DF811
:100CB00040101192D20F62F341018DF8401086E787
:100CC0000B4600224FF00A0EE7E79DF84120023361
:100CD00042F004028DF841201A786C2A47D02BD8B4
:100CE000682A31D06A2A4BD04C2A51D01A4612F8C1
:100CF000013B782B03928DF843309DF8412000F2A0
:100D0000BE806D2B51D8692B00F2B980572B67D864
:100D1000412B03D0453B022B00F2B18004229DF809
:100D2000423062F302038DF84230012373E00CFB82
:100D300002020B46303A5DE7742A25D07A2AD5D1D3
:100D400006219DF841200CE05A78682A9DF8412040
:100D500006D1012161F3C6028DF841200233C5E7B7
:100D6000022161F3C6028DF841200133BEE75A78B3
:100D70006C2A9DF8412001D10421EBE70321F0E723
:100D800005219DF84120ECE707219DF84120E8E787
:100D9000BDF8402022F4F04222F0020242F48042E8
:100DA00042F00202ADF84020DFE76E3BD9B20123EA
:100DB0008B4040F282410B4237D113F0240F51D1C6
:100DC000D8075CD503219DF8423061F302038DF80A
:100DD000423002F07803A3F140014B424B411AE04C
:100DE0000120A3F15801C9B200FA01F111F4624FD8
:100DF00094D140F6010631421DD111F4043F3ED09A
:100E00009DF8423060F3020302F07802402A8DF828
:100E1000423034D000239DF84020C2F340010B4300
:100E200063F341028DF84020FDE602219DF8423037
:100E300061F30203E8E702209DF8421002F0780215
:100E400060F30201402A8DF8421002BF9DF8401065
:100E500041F001018DF84010632BDBD1131E18BF48
:100E60000123D8E703219DF8423012F0780F61F397
:100E700002038DF8423014BF01230023CBE79DF815
:100E8000403043F001038DF84030C3E79DF9402026
:100E9000002AACBF4FF0FF38DDF84480D5E6980754
:100EA0007FF5E2AEDDF848A00023CDE911339DF8CF
:100EB00042309DF8411003F00703012BC1F3C30139
:100EC00033D1CB1E042B04D8DFE803F010464610C4
:100ED0001000236801294FEAE372CDE90E320BD1ED
:100EE00003F0FF030E9300230F9307E054F8043B35
:100EF000DA17CDE90E3202E0022911D004349DF850
:100F0000403013F0030647D03A4659464846039B03
:100F100007F037F90028C0F249810544039FE9E54D
:100F20001AB20E9243F3C033DEE7022B24D1CB1E5C
:100F3000042B04D8DFE803F018101018180001295A
:100F40004FF0000254F8043B14D00229CDE90E32D0
:100F5000D5D19BB20E93D2E7073424F00704F4E80E
:100F60000223CDE90E23CAE754F8043B0E93002375
:100F70000F93C4E7DBB2BCE7042B08D1073424F09D
:100F80000704D4E900230834CDE90E23B7E7032B87
:100F9000B5D154F8043BDDE79DF843007828BDD86F
:100FA00062281CD825283FF4ADAD5828B6D1DDE91C
:100FB0000E010DF13603009310AA08AB07F09BF861
:100FC000BAF1000F074680F29980002FA6D00DF1EC
:100FD0003603D81B002E00F0C0800130BDE063381E
:100FE00015289BD801A252F820F000BFC1100000C4
:100FF000D31000001D0F00001D0F00001D0F00008A
:101000001D0F0000D31000001D0F00001D0F000079
:101010001D0F00001D0F00005F110000F710000001
:101020001D1100001D0F00001D0F000045100000E5
:101030001D0F0000F71000001D0F00001D0F000025
:10104000F7100000BAF1000F0E9F35DB514638460D
:1010500007F088F907EB000A002F3FF45FAF002686
:101060009DF8423013F01002059200F09280023099
:101070005B06119A48BF129B104448BFC018B8F1D4
:10108000000F049240F39F809DF84020A8EB0008D9
:10109000C2F380035007069300F19580510640F19A
:1010A00088803EB159463046C84700287EDB069B03
:1010B00001351E4630227DE0384607F04CF9C9E77D
:1010C0000E9B002601208DF8203008AF0DF1210A7B
:1010D000C6E719075ABFC3F300135E012B26DDE9EB
:1010E0000E23002BBFF663AF524263EB43032D2662
:1010F000CDE90E235BE7002659E700269DF8402046
:101100000DF13603DB1B6FF386129A458DF84020F4
:101110007FF65BAFAAEB0303119356E70E9890B3EB
:101120000DF136030093002108AB10AA06F0E3FF8F
:10113000BDF84230BAF1000F03F0EF0343F4F0437F
:1011400043F010030746ADF84230D6DA00283FF4EA
:10115000E5AE00260DF13603181A9A4680E70E9B7D
:1011600007293FF6DBAEDFE801F00C04060C0808A7
:101170000C0C1D70D2E61D80D0E6EA17C3E90052C0
:10118000CCE61D60CAE62F4F064607F1050A05208A
:1011900066E71A0748BF01306AE7104607930692D0
:1011A0005946C847DDE90623002804DA15B0BDE832
:1011B000F08F202243461946002903F1FF33ECDC6F
:1011C000454498466D1A2EB159463046C847002806
:1011D000ECDB01359DF84230DA0601D41B0705D55A
:1011E00059463020C8470028E0DB0135059B33B164
:1011F00059469DF84300C8470028D7DB0135049EB7
:101200002E4405E059463020C8470028CEDB013582
:10121000731B002BF6DC53463A465946484606F007
:10122000B0FF0028C2DB0544A844A8EB0503002B4F
:101230007FF774AE59462020C8470028B6DB013539
:10124000F3E700BF968E0000044608B54FF0200279
:10125000EFF3118382F31188BFF36F8F07F028F843
:10126000204601F01DFB034806F0D9FE00F0EAFF1E
:10127000FCE700BF9C8E00004FF02002EFF31183CB
:1012800082F31188BFF36F8F0121044AC2F8401521
:1012900083F31188BFF36F8F0020704700900350D5
:1012A00020B1034B800143F001031847704700BF92
:1012B000A08A000084B004AB03E907009DF8043065
:1012C000062B07D10122044BC3F80025BFF34F8F33
:1012D00020BFFDE704B0704700400050F8B5054658
:1012E0004FF02003EFF3118683F31188BFF36F8F64
:1012F000174802F099FC40B916491748812206F0B8
:101300008EFE8121134806F053FF114802F0A8FC1D
:10131000124B134F1C688CB90D4802F093FC40B976
:101320000C490D48AC2206F07AFEAC21094806F0C3
:101330003FFF86F31188BFF36F8FF8BDD4E9012317
:10134000002D18BF13460BB1387898472468E2E7A0
:1013500028020020708E0000368E00002C02002033
:10136000340200201FB50F4B1A68BAB901221A6067
:101370000D4A01AB07CA83E807000C4A4AB193E85B
:10138000070006F01DFF002005B05DF804EBFFF735
:10139000A5BF82F31188BFF36F8FF4E705B05DF846
:1013A00004FB00BF0400002034020020C1810000C3
:1013B000F0B589B06E46214C01460546304606F030
:1013C00017FF96E8070084E807002078264698B3C0
:1013D00000201B4B18606B1C19D0914208D2194990
:1013E0001948CB2206F01BFECB21164806F0E0FE82
:1013F0004FF4004C0021A76814480023E7FB0C01C0
:10140000134AFEF71BFF0121281A03F037FF02F0F1
:10141000F7FF0120FFF762FF96E8070005AB83E8BE
:1014200007000C4A1AB193E80700FFF743FFFFF7E4
:1014300099FF03F039F8207809B0F0BD340200209C
:1014400004000020C98E0000368E00003F420F00CD
:1014500040420F00B512000010B5074802F0F6F840
:10146000064C074B1860204601F0FAFC2046FFF7B7
:101470008FF8002010BD00BFF48E0000851400001E
:10148000400200200A2838B50446074D04D12868D8
:1014900083680D215B68984728688368E1B25B68C0
:1014A0009847204638BD00BF4002002037B5402392
:1014B0000C460A490093411A491105462346084A39
:1014C000084806F0ADFE011E05DA2846234603B0A3
:1014D000BDE83040184703B030BD00BF5C020020BB
:1014E0008B8200006887000038B5CCB2012C05461D
:1014F00008D9084908487E2206F091FD7E2105485A
:1015000006F056FE0C222B6904FB0233986C00F0A7
:10151000070038BDFB8E0000368E0000F8B5CCB257
:10152000012C0546174606690AD91849184840F2A1
:10153000531206F074FD40F25311144806F038FEC1
:101540004FF02003EFF3118283F31188BFF36F8F05
:101550000C2101FB04639B6C13F0C00308D09F4275
:1015600006D082F31188BFF36F8F4FF0FF30F8BDC4
:1015700001234C432644B36482F31188BFF36F8F79
:101580006B6823445B6898470020F0E7FB8E0000FF
:10159000368E000070B50D4606490446411A4911C1
:1015A00040220548FFF7BAFF2B4601462046BDE81A
:1015B000704018475C0200206887000070B5002268
:1015C00001210446052000F0E1FD052000F0C2FDE8
:1015D0000F4801F0FFFE0F4B984215D101F01AFFA2
:1015E00026690D49304606F069FD00280BDB012510
:1015F00024690949B56404F1200006F05FFD002864
:1016000001DB0020656570BD6FF00400FBE700BFE3
:10161000511600000000AD0BA88A000001460C2303
:1016200000224B43084870B5C41848331844D4E925
:101630001056226406F0E1FD2DB132462B46BDE87E
:1016400070400248184770BD5C02002068870000A7
:10165000012808B506D0032808D0A0B90F4B9B6C11
:101660005B0719D1BDE80840FFF7D8BF0C4940F22D
:1016700066220C4806F0D3FC40F26621BDE8084023
:10168000074806F095BD064940F26A22054806F073
:10169000C6FC40F26A21F1E708BD00BF5C020020F1
:1016A000FB8E0000368E000008B54FF02003EFF3EC
:1016B000118183F31188BFF36F8F124A136843F0CF
:1016C00002001060DA0708D481F31188BFF36F8F2E
:1016D000BDE80840012001F0BBBE4FF05023D3F815
:1016E0000C24D3F80C34D307EED5074806F085FD5B
:1016F00081F31188BFF36F8FBDE808400020FFF72A
:101700008DBF00BFB4020020A40200201FB500223C
:101710000123CDE902236B46084ACDF800D0CDF86D
:1017200004D006F0ABFD002805DB4FF48042002317
:10173000684602F065FC05B05DF804FBA982000074
:10174000074BD3E8EF2F22F00201C3E8E01F002887
:10175000F7D1D30702D4012001F0CCBE704700BFFF
:10176000B40200202DE9F041012206464449D1E8A7
:10177000EF3FC1E8E02F0028F9D19BB94149424829
:101780004B60CB608A60FFF727F900280ADA3F49EF
:101790003F4840F2262206F042FC40F226213B4818
:1017A00006F006FD76B3731E012B5CD8012E07D11F
:1017B0004FF05023D3F81C3403F00303022B21D045
:1017C00006F064FF0546F8B9324B1B78E3B14FF0E1
:1017D000502302220746C3F808234FF05024DFF8B5
:1017E000B880D4F81834D4F81824D20316D503F0EE
:1017F0000303022B01D0012E10D175B387F311889A
:10180000BFF36F8FBDE8F0814FF02003EFF3118736
:1018100083F31188BFF36F8F0125DEE7C5B138462A
:1018200000F01EFDD4F81835DBB2012BD9D1D4F865
:101830000421002AD5D00022C4F80421D4F80421C0
:101840000222C4F818252022C8F88021A360C8E726
:101850000021212003F0C0FAE4E74FF050230222D8
:10186000C3F80423CEE7094909484FF40E7206F085
:10187000D6FBBDE8F0414FF40E71044806F098BC69
:1018800054020020440200207C020020FB8E000055
:10189000368E00002113002000E100E010B5064C58
:1018A00006482146172206F0BAFB2046BDE8104044
:1018B000172106F07DBC00BF528F0000368E00005D
:1018C000044A1368C81A20F07F400344136003F0F1
:1018D00015BD00BFC80200202DE9F0474FF4803746
:1018E0004FF00009860000F1500406F15026A400D4
:1018F00006F58036A4B204F15024D6F84035DFF85E
:101900006C8021F07F4504F580348740D8F804A529
:10191000A3EB0A0323F07F432AF07F42012BC6F892
:10192000402502D1132006F0E9FE0AF10202AB1AAB
:1019300023F07F43B3F5000F88BF1546C4F800902D
:10194000236825F07F43C8F84473C6F84035D8F8BB
:1019500004359A4506D0EB1A023B23F07F43B3F5DA
:10196000000F01D8BDE8F0872B46CFE700500150AB
:10197000114B0020D3F8042310B5D2031BD5D3F8A4
:101980004021C2B1C3F84001D3F840214FF4803266
:10199000C3F84823D3F84025D3F804158B1A23F055
:1019A0007F43B3F5000F98BF1146044B1C681860C5
:1019B0000CB15A68A04710BD00500150C002002071
:1019C00038B500254FF480334FF400120C4C012140
:1019D000C4F80855C4F804330A4B1520C3F8802115
:1019E0002A4600F0D3FB152000F0B4FB0123064A81
:1019F000A360022023601360FFF7B4FE284638BDC1
:101A00000050015000E100E0BC020020134A1449DC
:101A100010B4B0F1FF3F14BF03460B46D2F80405E3
:101A2000104A1468001B20F07F42000213D4013BCF
:101A30008B42A8BF0B4623EAE37301320A481344E2
:101A40000A4A8B4294BFE11861181060002010BC54
:101A50005060FFF741BF0023EFE700BF0050015087
:101A6000FFFF7F00C8020020C1180000C002002054
:101A7000044BD3F80405044B1B68C01A20F07F40C8
:101A8000704700BF00500150C8020020F7B5002881
:101A90001C4614BF4FF400534FF400438A420BD24C
:101AA00094222149214806F0BAFA94211E4803B035
:101AB000BDE8F04006F07CBB33D00D461C4E68B349
:101AC00005F5E0770135AA4246F82740F7D102FB39
:101AD00003F0013A4B430090164806F0A0FA164B6B
:101AE00014F0100F1549164818BF194606F097FA5A
:101AF0007221144806F093FA7721124806F08FFA03
:101B00007821104806F08BFA6C210E4806F087FA0F
:101B10000D4803B0BDE8F04006F081BA05F5C07786
:101B2000D0E703B0F0BD00BFA38F0000368E0000E9
:101B300000300050C48F00008E8F0000978F00008F
:101B400075910000DE8F0000339B000010F0800FC5
:101B500010B500F500720ED0124B53F82230002B56
:101B600004DA03F00303023B012B16D9012106F02E
:101B7000A7FB002010BD012100F01F04A140430974
:101B8000094C203344F82310BFF34F8FBFF36F8FFE
:101B9000044B312853F82230E1D1024B034943F87A
:101BA0002210E3E70030005000E100E00001008077
:101BB0001FB54FF480344FF480311D4806F02FFAE2
:101BC00021681C4806F02BFA61681B4806F027FACA
:101BD00010220021684606F00CFC2368684600933A
:101BE000029400F0C5FE012000F0F2FE002000F09B
:101BF000DBFE002000F000FF0121002000F01AFFB2
:101C000000F00EFF64680D4806F009FA0820FFF79F
:101C10009DFF24F00104BFF34F8FBFF36F8F640863
:101C200064002046214622462346FEF721FB00BFE2
:101C3000E18F0000F88F00000D9000002B90000055
:101C40002DE9F041514806F0EAF9002140F217135E
:101C500008460222FFF71AFF4D4D40F207132022DB
:101C600002210020FFF712FF4A4806F0D8F9C5F319
:101C70000E04494BC4F500449C4208D247494848E9
:101C8000822206F0CCF98221444806F091FA454EB2
:101C9000C4F34314D6F80035C5F3C435DA050AD5C4
:101CA00041493F484FF4BD7206F0B9F94FF4BD7198
:101CB0003D4806F07DFAD6F80435DB050AD53A49E9
:101CC000374840F27B1206F0AAF940F27B11364801
:101CD00006F06EFA334B3548C3F80055C3F8044597
:101CE000D3F80015D3F80425520106F098F92948D5
:101CF00006F095F900F070F8014610B12C4806F096
:101D00008EF900242B4806F08AF940F217130822B6
:101D100000210120FFF7BAFE224D40F207132022D6
:101D200008210120FFF7B2FE1A4806F078F9C5F83D
:101D30008044214806F073F9204FC5F8C044204E76
:101D4000204DDFF884806B792A6853B130462146F4
:101D50001E4B06F064F92879FFF7F8FE98B91C4885
:101D600005E030463B46214606F059F9404601342D
:101D700006F055F91C2C05F10805E4D10548BDE82D
:101D8000F04106F04CB91348F1E700BF569000004F
:101D9000E0FF0000339B000020000000A38F000044
:101DA000368E0000003000507A900000AC900000A9
:101DB000F290000022910000449100009B8F0000EF
:101DC0006B910000E08A00007891000060910000B3
:101DD000879100007F91000000220248114603F025
:101DE000CDBB00BFCC02002070B50C4615460646A0
:101DF00050B96FF01500BDE87040714672467346E9
:101E0000F4468EF3008C7447002AF2D006F09EFA56
:101E10000128EED00C4B9C420BD92A1903F61D2346
:101E20009A4209D82A462146304606F0D7FA0020C1
:101E3000E1E7064B9C4203D9054B2A199A42F1D996
:101E40004FF0FF30D7E700BF0302FF002F01FF0074
:101E50003801FF0070B506460D46144606F076FAC6
:101E6000012804D0204606F071FA01280AD16FF04B
:101E70001500BDE87040714672467346F4468EF315
:101E8000008C744723462A463146034803F0AAFBD8
:101E90002368AB42EDD0EAE7CC0200202DE9F04FF9
:101EA00081460D4685B061B96FF01504204605B036
:101EB000BDE8F04F714672467346F4468EF3008CCF
:101EC000744706F043FA0128EED1284606F03EFAA0
:101ED0000128E9D04FF00008DFF840B0DFF840A05B
:101EE00001AF5BF8046B9AE807004E4487E80700EF
:101EF0000C223946304606F04AFA044600B93EB98B
:101F000008F10108B8F1050FEBD16FF00D04CDE732
:101F10003C223146284606F061FAC7E7C08B000034
:101F2000508A0000014803F021BB00BFD48B0000A1
:101F300010B5044618B90D4B0D485B6898476168A9
:101F400031F004030CD008290AD011F0020108D0A6
:101F50002146084801F046FD00232360002363600A
:101F600010BD1422206806F044FAF7E76000002054
:101F7000989200008809002008B5E8B14368042B56
:101F80000CD101220368D3E8EF1F002903D1C3E875
:101F9000E02F0028F7D10BD1002008BD53B1006815
:101FA0004FF0FF324FF0FF3301F08AFE0028F3D0EC
:101FB0000348F2E70348F0E76FF4E040EDE700BFC5
:101FC000E98FFFFFEA8FFFFF08B5A0B14368042B3C
:101FD0000CD100220368D3E8EF1F012903D1C3E825
:101FE000E02F0028F7D109D1002008BD43B10068D7
:101FF00001F038FFF8E76FF4E040F6E70148F4E756
:102000000148F2E7E98FFFFFEA8FFFFF10B50446B2
:1020100018B9164B16485B6898476368042B23D0A1
:10202000082B21D0CBB92368BBB94FF0FF324FF05A
:10203000FF3321460F4801F07BFC08B923681BB928
:102040000A4B0D485B68984714220021206806F06F
:10205000D0F9636843F002036360206806F02DFB4B
:10206000636843F00103636010BD00BF600000209F
:102070009892000088090020BE92000008B5064929
:1020800040231422054806F0E5FABDE8084004495B
:10209000044803F01FBB00BF88040020880900200B
:1020A000DC8B0000F08B0000094A0A49936809683C
:1020B0005867996708494B6843F080534B60002389
:1020C00083F31188BFF36F8F9368986F704700BFD9
:1020D000D0090020748C000000ED00E013498A68EC
:1020E0004FF030001044EFF3098C80E8F01F2020FF
:1020F00080F31188BFF36F8F0D4F4FF000664A6A6F
:102100008A603E60506F0023536780F3118802F1AC
:10211000300090E8F01F8CF3098802F1000004B54C
:1021200006F0FCF8BDE8044070470000D00900202C
:1021300004ED00E01EF0040F0CBFEFF30880EFF396
:102140000980816911F8021C0229FFD001B506F04F
:10215000E9F801BD40B2002807DB01234109034A29
:1021600000F01F00834042F82130704700E100E09A
:10217000054B420953F82220012300F01F0003FA07
:1021800000F01040704700BF00E100E038B54D1C82
:10219000072D044608D90D490D48582205F03FFF88
:1021A00058210A4806F004F860B20028ACBF00F1DC
:1021B0006040084B4FEA4515EDB2ABBF00F56140FA
:1021C00000F00F0080F800531D5438BDEB92000062
:1021D000368E000014ED00E042F8203C009B0B49D5
:1021E00042F81C3C019B21F0010142F8183C029B83
:1021F00042F8081C42F8143C4FF0807342F8043C4B
:102200000023203A02654367704700BFE380000067
:10221000084B9860436E83F30B88104681F309885E
:10222000002163B681F31188BFF36F8F0022002372
:1022300005F057FFD0090020014910220A607047BD
:1022400010ED00E072B6404080F31188BFF36F8F4D
:10225000BFF34F8F30BF62B6BFF36F8F704700BFC1
:1022600072B6494081F3118820BF80F3118862B6AD
:10227000704700BF37B505460C46C9B18B6810489A
:102280000093D1E90023452105F0A5FF63694521AD
:102290000093D4E903230B4805F09DFF4521E26933
:1022A000094805F098FF4521A269084805F093FF09
:1022B0002146284603B0BDE8304001F0F1B900BF27
:1022C0002193000055930000899300009D93000026
:1022D00030BFFFF7FDBF00BF0B4A08B50B4B22F024
:1022E0007F029A60BFF34F8FBFF36F8FD3F88820C0
:1022F00022F47002C3F8882001F02EFA02F036FEB4
:1023000000F018FB01F04CFA0000000000ED00E0C6
:1023100001B572B60B4A106A00281EBF0021116277
:1023200006F0BCF962B6EFF30580A0F110004FEAA9
:10233000C0000549014409C99847BDE80140034967
:1023400008470000D0090020E08700008528000031
:10235000002080F31488BFF36F8F002080F30A8879
:1023600080F30B8806F0CEF900200E490860BFF319
:102370004F8F0D4880F3088800F0B6FA202080F3D4
:1023800011880A484FF40061401880F30988EFF380
:1023900014800221084380F31488BFF36F8FFFF786
:1023A0009BFF000094ED00E0202600202026002066
:1023B000EFF30880EFF3098101B5724600F07CF974
:1023C00001BD00BF10B5244C2448452105F003FF92
:1023D000D4F8E820D4F8E430580603D54521204845
:1023E00005F0F9FED4F8E430D9070BD545211D4896
:1023F00005F0F1FE184AD2F8E43043F0FF03C2F8CA
:10240000E43010BDD4F8E4309A0702D545211648CF
:10241000EEE7D4F8E4305B0702D545211348E7E73F
:10242000D4F8E430180702D545211148E0E7D4F884
:10243000E430D90602D545210E48D9E7D4F8E43076
:102440009A0602D545210C48D2E7D4F8E4301B06A1
:10245000D0D545210948CBE700ED00E0D09300003E
:10246000EE930000039400001E94000041940000CD
:1024700061940000839400009D940000BC940000CF
:1024800038B5214C4521214805F0A5FEA36A9D01E0
:1024900003D545211E4805F09EFEA36ADC0103D545
:1024A00045211C4805F097FE174DAC6A14F48014C2
:1024B00004D04521184805F08EFE0224AB6A1803AB
:1024C00003D54521154805F086FE0F4DAB6A59032B
:1024D00003D54521124805F07EFEAB6A9A0303D569
:1024E0004521104805F077FE074DAB6ADB0303D5A5
:1024F00045210D4805F06FFEAB6A20466FEA0343A5
:102500006FEA1343AB6238BD00ED00E0D4940000E5
:10251000F1940000099500002895000057950000EF
:102520007A950000A4950000C395000070B5234C77
:1025300006460D462248452105F04DFEA36AD90402
:1025400003D545211F4805F046FEA36A1A0503D5A9
:1025500045211D4805F03FFE184CA36A9B0510D588
:102560001A48452105F037FEA26BA36A180408D566
:102570004521174805F02FFE1EB1A36A23F400433E
:10258000A3620E4CA36A590503D54521114805F0F5
:1025900022FEA36ADA050BD545210F4805F01BFE84
:1025A0000020064A936A43F47F439362287070BD0B
:1025B000A36A9B04F4D545210848EFE700ED00E04D
:1025C000F39500000E960000249600003C96000053
:1025D0005A9600007496000094960000B196000090
:1025E00070B52B4C06460D462A48452105F0F3FDF3
:1025F000A36AD80603D54521274805F0ECFDA36A58
:10260000190703D54521254805F0E5FD204CA36AAF
:102610009A0710D54521224805F0DDFD626BA36ABB
:102620001B0608D545211F4805F0D5FD1EB1A36A3C
:1026300023F08003A362164CA36ADE0703D545216D
:10264000194805F0C8FDA36A980603D54521174827
:1026500005F0C1FD0E4B9A6AD10602D49A6A920720
:102660000DD59B6ADB060AD51149124840F24F127C
:1026700005F0D5FC40F24F110D4805F099FD002002
:10268000034A936A43F0FF039362287070BD00BF52
:1026900000ED00E0E59600000097000024960000A1
:1026A000389700005597000070970000B196000021
:1026B00094970000368E00002DE9F0415F4B0546EF
:1026C0005F688AB00023C7F3080483F31188BFF35F
:1026D0006F8F02F07F40B0F17F4F41D112F00106C1
:1026E0001ED012F0400602F0080804D0B8F1000F26
:1026F00033D1012613E0500758BF2946504B0A68D2
:1027000058BF01261344012B98BF0A6C4D48452140
:1027100005F061FDB8F1000F1CD0EFF389855DB9BC
:1027200040F2E1324849494805F079FC40F2E13194
:10273000454805F03DFD00254FF00008E31E8DF8EB
:102740000780092B67D8DFE803F00D5B5F38576619
:1027500066666663EFF38885E1E70D461E46DEE7B1
:102760001E46DDE7354C4521394805F034FDE36A66
:102770008DF807809A0704D54521364805F02BFDD2
:102780003CE0E36A5B0039D54521334805F023FD81
:1027900094F828302BB101200DF10701FFF720FF3D
:1027A0000DE094F829302BB101200DF10701FFF75E
:1027B000BDFE04E0638D9BB2DBB1FFF761FE044612
:1027C0009DF8073093B92022294602A805F006FE9D
:1027D000099B6EB3C3F3080222B96FEA53236FEA71
:1027E00043230993204602A9FFF744FD0AB0BDE840
:1027F000F081D4F8E4300BB1FFF7E4FD0024DFE70B
:1028000000200DF10701C9E700200DF10701CEE717
:1028100045211248B2E7124917F4F87F114A1248CD
:1028200008BF0A46A4F11003452105F0D4FCE5E7F2
:1028300023F4FF7323F00103D3E700BF00ED00E0B2
:10284000A6ED0501FC97000094970000368E00006D
:10285000209800003C9800006298000086980000D4
:10286000CE970000E3970000AF980000044B5A6930
:1028700042F010025A615A6942F480625A6170470C
:1028800000ED00E0044B9968586A884203D0034980
:102890004FF080520A607047D009002004ED00E03C
:1028A000BFF34F8F0549064BCA6802F4E062134339
:1028B000CB60BFF34F8F00BFFDE700BF00ED00E02E
:1028C0000400FA05002318460649D1F89020C2F307
:1028D0000722934200DB7047C1F89830C1F8A0008E
:1028E0000133F6E700ED00E010B572B6002484F382
:1028F0001388FFF7E7FF23464FF0FF300C4A03F140
:1029000020010133102B42F82100F8D100234FF0B1
:10291000FF30074A03F160010133102B42F8210018
:10292000F8D162B6BFF34F8FBFF36F8F10BD00BFFA
:1029300000E100E0002320210348C2180133412BAD
:1029400082F80013F9D1704700E100E0064B9B6864
:10295000834207D1EFF3058323B1044A536843F060
:102960008053536002F06EBAD009002000ED00E001
:1029700082680C4B9A60036883F38888436883F30A
:102980008988027B02F00101EFF3948323F00303B3
:10299000920748BF43F0020309B143F0010383F3F8
:1029A0009488704700ED02E0084AD36848B123F4E8
:1029B00000531B041B0C43F0BF6343F40033D3608C
:1029C00070479BB243F40053F5E700BF00ED00E011
:1029D000084AD36840B19BB243F4804343F0BF63DD
:1029E00043F40033D360704723F480431B041B0C73
:1029F000F4E700BF00ED00E0084AD36840B19BB2A5
:102A000043F0080343F0BF6343F40033D3607047DF
:102A100023F008031B041B0CF4E700BF00ED00E0EB
:102A2000034AD2F88C3043F44063C2F88C307047CC
:102A300000ED00E00A4BD3F8D02020B142F00102B3
:102A4000C3F8D020704722F00102C3F8D020D3F899
:102A5000D02011B142F00202F2E722F00202EFE7C9
:102A600000ED00E01FB5094C094A23460121094841
:102A700000F024F900230393074B0121E41A01A875
:102A80000193029400F036F904B010BD000001205B
:102A900000000020008C00002001002010B50B6811
:102AA0000C7A23F01F0304F01F021A43CB68640959
:102AB00023F01F03054943EA440343F00103C1F82F
:102AC0009800C1F89C20C1F8A03010BD00ED00E0D6
:102AD00030B54B680C6885B00A894D890094013B7C
:102AE00024F01F04234402F01F0242EA451223F09F
:102AF0001F030F2804468DF80820039309D90246C6
:102B00004521064805F067FB6FF01504204605B027
:102B100030BD6946FFF7C2FFF8E700BFCB98000061
:102B20002DE9F04F8946144606464FF00008544DF3
:102B300085B0C84527DAD6F804A0BAF1000F45D011
:102B4000BAF11F0F18D91AF01F0F15D1D6F800B01F
:102B50001BF01F0F10D1584605F0EFFB07460AEB9C
:102B60000B00013805F0E9FB874210D06FF0150724
:102B70003A464521434802E042464521424805F095
:102B80002AFB6FF01504204605B0BDE8F08F17F161
:102B9000160FEDD0631EBB42EADBC5F89870D5F87E
:102BA0009C10C5F89870D5F8A03021F01F0143F0B3
:102BB0001F0BD6E900321A44994202F1FF3A1DD1A7
:102BC000D34507D13146F8B2FFF782FF08F101087B
:102BD0000C36AEE73146C5F89870D5F89C3022F037
:102BE0001F0203F01F031343C5F89C30E0B2FFF748
:102BF0006FFF10F1160FC4D0441CE7E7C5F89870BA
:102C0000D5F8A020013B23F01F0302F01F0213435D
:102C1000D3453146E0B2C5F8A030E8D0FFF758FF01
:102C200010F1160FADD0C5F89870D5F89C209DF81E
:102C300008300BF1FF3B62F304038DF80830D5F840
:102C4000A0309DF808205B0863F34712D6E90031F5
:102C50000B44009323F01F0301305B44A3EB0A03F2
:102C6000C0B223F01F030F288DF80820039303D967
:102C700002464521054882E76946FFF70FFFBBE79B
:102C800000ED00E01E990000F6980000CB980000CF
:102C90000522044BC3F89420BFF34F8FBFF36F8F0F
:102CA000704700BF00ED00E0BFF35F8F0022024BD2
:102CB000C3F89420704700BF00ED00E010B50A4C47
:102CC0002278FFF72DFF207016300CD107490848F5
:102CD00040F2051205F0A3F9BDE8104040F20511DD
:102CE000024805F065BA10BD201300204699000087
:102CF000368E00002DE9F74F304D8A4606464FF0DC
:102D00000008AB462E4FD04502DB03B0BDE8F08F84
:102D1000D6F80490B9F1000F4AD031680846019105
:102D200005F00BFB0199044609EB0100013805F0A1
:102D300004FB84424FF01402224B13D002FB08F331
:102D40006FF015024BF8032040F215121E491F4880
:102D500005F065F940F215111B4803B0BDE8F04FCE
:102D600005F026BA14F1160F2C60EDD01978A142A7
:102D7000EADD02FB08B0C7F89840C7F89840D7F8DA
:102D80009C4000F10801007B64F304000871D7F84F
:102D9000A0000C79400860F347140C71D7F89C1020
:102DA00021F01F016960D7F8A01021F01F012961EF
:102DB00008F1010814350C36A5E700BFA80900206A
:102DC00000ED00E02013002046990000368E000040
:102DD00038B51D4D2C68102C0DD94FF49E721B492F
:102DE0001B4805F01CF919484FF49E7105F0E0F9F5
:102DF0004FF0FF3038BD0020FFF756FF154B164A45
:102E0000C3F8C02084420CD1144B1C70FFF740FF64
:102E1000104BD3F89030C3F30723102B08D10020B8
:102E2000E8E7696801EB0011FFF738FE0130E9E7D8
:102E30004FF4D0720549064805F0F1F84FF4D0710F
:102E4000024805F0B5F9EAE70C8C0000469900004D
:102E5000368E000000ED00E0AAFF440020130020A1
:102E6000014B1860704700BF28000020026810B5B1
:102E70005309044604D14FF0FF33D340DB070AD493
:102E80000E490F484FF4057205F0C9F84FF405716B
:102E90000A4805F08DF9236803F01F025B092260E0
:102EA0000AD00649064840F2192205F0B8F840F267
:102EB0001921024805F07CF9024810BD8C990000E8
:102EC000368E000000258450F0B54B79012B2AD0B6
:102ED000032B25D110268B79032B21D1CC792CB152
:102EE000012C1DD143685B689B0719D00A7912B188
:102EF000022A15D10E220B684568B3F5164F2D68CE
:102F000065D02DD8B3F5165F64D016D8B3F5966F9B
:102F100062D00AD8B3F5967F61D0B3F5167F61D041
:102F20006FF0850052E00026D5E7B3F5166F5CD050
:102F3000B3F5965FF4D1374B3CE0B3F5E14F57D092
:102F400007D8B3F5615F55D0B3F5964FE8D1324B52
:102F500030E047F61227BB42E2D14FF4000329E0EC
:102F6000B3F5613F48D013D8B3F5963F47D009D8A1
:102F70004DF6C027BB4244D0B3F5614FD0D14FF4DA
:102F80006B0317E0B3F5E13FCAD14FF0EB7311E0EB
:102F9000B3F5612F38D008D8204FBB4237D0B3F5F6
:102FA000E12FBDD14FF0E86304E01D4FBB42B7D124
:102FB0004FF08053C5F8243503693443224304336A
:102FC00003C9C5F86C2583E803000020F0BD4FF469
:102FD0001D03EFE7134BEDE74FF49E23EAE74FF4B1
:102FE000A033E7E74FF41C33E4E74FF41D23E1E798
:102FF0000D4BDFE70D4BDDE74FF06C73DAE70C4B61
:10300000D8E74FF46503D5E74FF07063D2E74FF090
:103010008063CFE700B0130000A04E0090D0030003
:1030200040420F000050270000C0750000F03A0039
:1030300000903A01F8B505460F46066905F026FBF3
:10304000B0B92C4B1B789BB16424686805F0FFF97C
:10305000F8B9012005F0F1FA013CF6D10021212058
:1030600001F0BAFEF0E784F31188BFF36F8FF5E744
:103070004FF02003EFF3118483F31188BFF36F8FB8
:10308000686805F0E4F988B984F31188BFF36F8F9D
:10309000EEE74FF02003EFF3118483F31188BFF3C1
:1030A0006F8F686805F0D3F90028DCD0012206F89C
:1030B000107F69680B68C3F84465C3F8482500228F
:1030C000C3F82021D3F82001C3F85821D3F85821A0
:1030D0004A68D20641BF0822C3F800254FF4800297
:1030E000C3F8042301229A6084F31188BFF36F8F21
:1030F000F8BD00BF2113002030B585B06C460546F1
:10310000084B0FCB84E80F00002201210920FFF7B4
:103110003DF80920FFF71EF82146284605F0E1F9A1
:1031200005B030BD5C8A000030B585B06C46054600
:10313000084B0FCB84E80F00002201210820FFF785
:1031400025F80820FFF706F82146284605F0C9F9BA
:1031500005B030BD6C8A0000F7B50F46164640B981
:1031600018491948242204F05AFF2421154805F073
:103170001FF847B913491448252204F050FF2521B0
:10318000104805F015F84FF4806500246FF0150025
:10319000A64201D803B0F0BD331BB3F5806F38BF32
:1031A0001D46002001AB2A46391902F01BFA019B8B
:1031B000AB4203D10028EDD12C44E9E76FF01500B4
:1031C000E8E700BFD6990000368E0000034845218D
:1031D00008B505F000F80020FFF762FB119A000027
:1031E0002DE9F0430025204C204E54F8048CDFF8E4
:1031F000809085B0A84503D8002005B0BDE8F083D5
:10320000636A96E807001F6801AB83E807000C2299
:103210001946384605F0BBF888B987B1636A216959
:103220001B681A6991420AD19A69A169914206D82C
:10323000E169914203D962695B699A430AD0276ABE
:1032400067B10C4804F0EBFE404080F311884FF06A
:10325000040002DFE36801351C44CBE7484604F074
:10326000DEFE636A1F60F5E73C0200007C8A000016
:103270005C9A0000339A00004E4A08B5D2F8D0306C
:1032800043F00203C2F8D0304FF47F03D3F830315B
:10329000092B01BF4FF050230022C3F81421C3F8BB
:1032A000182105F0BBF928B10122434BC3F8382A95
:1032B000C3F878254FF47F03D3F83021092A07D1CA
:1032C000D3F83431012B1EBF01223B4BC3F87825C4
:1032D00005F0A4F918B10E22384BC3F8E42E4FF4D0
:1032E0007F03D3F83031092B06D10022324BC3F8CB
:1032F0000C270122C3F810270022D30003F57F0317
:10330000D3F80013013108D0D3F800130132D3F8F9
:103310000433B2F5807F0B60EFD1294BDA69D10716
:103320003AD5284BD3F80024012AFBD1C3F8042551
:10333000D3F80024012AFBD1214BDA69D20708D542
:10334000DA69204922F00102DA61D1F80024012A69
:10335000FBD11A6A01320AD11A6A22F0FF0242F046
:1033600020021A62174AD2F80034012BFBD1002246
:10337000144BC3F80425D3F80024012AFBD1BFF372
:103380004F8F0C49104BCA6802F4E0621343CB60C4
:10339000BFF34F8F00BFFDE71B6A0133C1D0054A61
:1033A000D2F88C3043F44063C2F88C30074B084AA3
:1033B0001A6008BD00ED00E00040005000A003507E
:1033C0000080FF00009003500400FA055400002024
:1033D0000090D00310B5044640B909490948B52208
:1033E00004F01DFEB521064804F0E2FE064B1A79F2
:1033F00022B9012205481C601A7110BD0448FCE77F
:103400008F9A0000368E0000C80900200000AD0B26
:103410000C00AD0B08B50B4B1B7943B90A490B489F
:10342000CE2204F0FCFDCE21074804F0C1FE0520A9
:10343000FEF79EFE20B9BDE808400520FEF78ABED3
:1034400008BD00BFC80900208F9A0000368E00001A
:10345000254B10B51B79044653B9244924484FF431
:10346000857204F0DCFD4FF48571204804F0A0FE65
:1034700074B1012C2DD01D491D484FF49E7204F0EB
:10348000CEFDBDE810404FF49E71184804F090BE88
:103490004FF05022D2F81834D2F81814C90312D5BC
:1034A00003F00303022B0ED1C2F818354FF050235E
:1034B0000022C3F80421D3F804210222C3F8042314
:1034C00001229A6010BD4FF050230122C3F8182545
:1034D000ECE74FF050230022C3F80021D3F800217D
:1034E000C3F804431C60EDE7C80900208F9A000070
:1034F000368E000038B5284B04461B7953B927494E
:10350000274840F2431204F08AFD40F24311234859
:1035100004F04EFE74B1012C23D02049204840F223
:103520005F1204F07CFDBDE8384040F25F111B489B
:1035300004F03EBE4FF050250223C5F80833C5F80D
:103540000441D5F80431012342F21074EB60D5F840
:103550001834DB031FD5012005F06FF8013CF6D1CC
:1035600019E04FF050250023C5F80843C5F8003195
:10357000D5F800316C6042F21074D5F80C34D5F8EF
:103580000C2403F00103D20305D523B1012005F07B
:1035900054F8013CF1D138BDC80900208F9A0000D1
:1035A000368E00004FF05023D3F8002110B552B1F1
:1035B0000020C3F80001D3F800210122C3F808233A
:1035C000114B1B6898474FF05023D3F804218AB160
:1035D0000022C3F80421D3F80421D3F81824D3F827
:1035E000181402F00302012A4FF0020103D1C3F8BC
:1035F00018159A6010BDC3F80813034B0120BDE8ED
:1036000010401B68184700BFC80900200E4B70B55A
:1036100053F82040013053F82060A64200D870BD16
:10362000D4E900352846984765B1EB6830B10028E9
:10363000B8BF4042FF28A8BFFF2018705A7842F058
:1036400001025A700834E8E7608C000070B5054646
:1036500010B90024204670BD0378002BF9D00E4C21
:103660000E4EB44208D10C4CB442F2D0204604F0C5
:10367000E7FF50B91834F7E7204604F0E1FF10B136
:103680002368AB42E6D01834EBE72846216804F003
:1036900072FE0028EED1DDE768870000E0870000B9
:1036A000F7B504460E464FF02003EFF3118783F37E
:1036B0001188BFF36F8F01F0BFFB0022042C98BF6D
:1036C0001D4B054694BF53F824301C4B00924521F6
:1036D00022461B4804F07FFD3EB1F369C3F30803A3
:1036E0001BB14521174804F076FD35B1284604F09A
:1036F000D3FF034608B1027802B9134B2A4645218D
:10370000124804F068FD31462046FFF75FFD042CA7
:1037100008D10F490F488F2204F081FC8F210C48FB
:1037200004F046FD87F31188BFF36F8F284603B07E
:10373000BDE8F040FFF70AB9788C0000CC9A000091
:10374000E29A00000F9B0000DA9A0000359B00000F
:10375000529B0000368E00000248034A0021121AD4
:1037600004F047BE20010020E0140020012208B52B
:10377000094B02201A70FFF749FF01F09BFE03205E
:10378000FFF744FF00F0D4F904F02FFC034A137B49
:1037900023F00103137308BD21130020A0010020B2
:1037A0002DE980483F4BA7B003F5006787F30888F1
:1037B00083F30A880024E0233B4D4FF0010B85F88A
:1037C0002230EC772C766C76AC76EC766B6A374EE2
:1037D00043F4E0236B626B6ADFF8D4A043F4002368
:1037E0006B62AC63EB68DFF8CC809BB243F0BF63E5
:1037F00043F40833EB60FFF739F8FEF71DFD4FF097
:10380000FF33AB62EB62FFF7E3FAFFF72BF940F20D
:103810000113294DADF8243006ABAB60CDE91F4450
:1038200004F00DFF2046FFF7F1FE0120FFF7EEFE4A
:1038300001F0B8F9214B6E624FF480522049059394
:1038400030465346CDE9034BCDE90144009400F0E6
:103850001BF9737B814623F004033046737300F039
:1038600021FD0F234FF4A072CDE902431549164BF9
:103870004046CDE904B4CDE9005400F005F998F8CC
:103880000D30524623F0040388F80D30494605F107
:1038900018033046C5E90633C5F80C802C756F60F7
:1038A000FEF7B6FC2026002000ED00E0A00100207D
:1038B0006D37000020010020D0090020BE9B0000D1
:1038C00020160020E0140020713C0000F8B5144CD4
:1038D000144D154EAC4208D9314614483C2204F030
:1038E0009EFB3C21304604F063FCAC4201D3002037
:1038F000F8BDD4E9041242EA010313F003030BD12B
:10390000E068A361834201D12034E3E7A769013372
:103910001760A2610A44F5E76FF01500E8E700BF01
:10392000D0000020D0000020C69B0000368E000092
:103930002DE9F74304460D4690461F4600F1080660
:103940004FF02003EFF3118983F31188BFF36F8FDA
:10395000304600F069F940B91F492048812204F03F
:103960005EFB81211C4804F023FC304600F078F90E
:10397000A369C3B12B601B68A361E3690133E361F1
:103980000024304600F05EF940B913491348AC22D8
:1039900004F045FBAC21104804F00AFC89F31188BF
:1039A000BFF36F8F13E058EA070203D16FF00B04E7
:1039B0002B60E6E7224649463046CDE9008700F015
:1039C00093FE044618B9064B9B685B692B60204642
:1039D00003B0BDE8F08300BF708E0000368E00009B
:1039E000D00900202DE9F04104460D4600F10806FB
:1039F0004FF02003EFF3118783F31188BFF36F8F2C
:103A0000304600F011F940B91D491E48812204F0EA
:103A100006FB81211A4804F0CBFB304600F020F968
:103A2000D4F81880B8F1000F0FD1204601F07AF8D1
:103A300058B12A68C0F87880426100F033FC3946FA
:103A40003046BDE8F04100F063BC2B68A269304607
:103A50001A602B68A361E369013BE36100F0F2F8AF
:103A600040B907490748AC2204F0D9FAAC21044810
:103A700004F09EFB87F31188BFF36F8FBDE8F081E0
:103A8000708E0000368E00002DE9F04385B0DDF821
:103A90003C900446B9F10F0F0F46154698462ED1BB
:103AA0001F4B98452FD104F15803C4E91633109BDE
:103AB000002623730423E81D63730E9B20F0070088
:103AC000C4E91970C4E90666A66084F80E90E6732E
:103AD000E66602930D9B3D1801930C9B2A460093CA
:103AE000394643462046FEF777FB0E4B66659B68DA
:103AF00003B11B6F2846236705B0BDE8F08309F1C9
:103B000010031E2BCFD940F205220749074804F0C5
:103B100086FA40F20521044804F04AFBC3E700BFDF
:103B2000713C0000D0090020EB9B0000368E0000A5
:103B30002DE9F043374C384D384F87B0AC4226461C
:103B40000AD93946364840F2D52204F068FA40F2E4
:103B5000D521384604F02CFBAE4204F130041BD3CF
:103B600000F04EFC2B4C2D4EDFF8B480DFF8B49003
:103B7000AC420AD9314640464FF43D7204F04FFA48
:103B80004FF43D71304604F013FBAC4220D307B034
:103B9000BDE8F04300F088BC54F8043C059354F8A9
:103BA000103C049354F8143C039354F8183C0293CB
:103BB00054F81C3C019354F8203C009354E90A2328
:103BC00054E90C01FFF760FF54F8303C5E65B5E73F
:103BD000636A5A1C0FD04FF4004240F2E7300021D4
:103BE00023EAE373C3FB020151EAC333276804D11C
:103BF000384600F0C3FB3034BAE74FF47A72002342
:103C0000FCF71CFB02460B4607F11800494601F081
:103C100015FAF0E7D0000020D0000020EB9B000058
:103C2000368E0000954A0000006838B1044B00F061
:103C300003001B7DC01A18BF012070470120704788
:103C4000D0090020054A0346117D92680A430168A5
:103C50000020914204BF186001207047D009002065
:103C6000024B1A7D9B68134303607047D009002004
:103C7000104C08B5A36893F90E30002B08DA0E49F2
:103C80000E48462204F0CBF946210B4804F090FA86
:103C90004FF02002EFF3118382F31188BFF36F8F8F
:103CA00001F0B6FA2062FDF783FB0028F0D1FEF7A1
:103CB000C9FAEDE7D00900200E9C0000368E000006
:103CC0002DE9F341044617461E46EFF3058343B141
:103CD0005F496048652204F0A2F965215C4804F060
:103CE00067FA4FF02003EFF3118883F31188BFF3D5
:103CF0006F8F5948FFF798FF40B9584955488122BE
:103D000004F08DF98121554804F052FA5248FFF72A
:103D1000A7FFE368524AE3B1A0689168884233D0B4
:103D200057EA060332D14C48FFF78CFF40B94B49A4
:103D30004848AC2204F073F9AC21484804F038FA42
:103D400088F31188BFF36F8F6FF00F0002B0BDE8EA
:103D5000F081916891F90E100133E36093683E4859
:103D60002161A360FFF76EFF40B93C493948AC229E
:103D700004F055F9AC21394804F01AFA88F3118897
:103D8000BFF36F8F0020E1E72169E5E791F90E109D
:103D900090F90E306FF07E029942A8BF1946914209
:103DA000B8BF11468B4249DD04F07FFC0546224630
:103DB0004146CDE90076284800F096FC0028E1D085
:103DC0004FF02003EFF3118683F31188BFF36F8F59
:103DD0002148FFF729FF40B920491E48812204F0FD
:103DE0001EF981211D4804F0E3F91B48FFF738FF55
:103DF000236821699C420AD04BB193F90E30994255
:103E0000A8BF19466FF07E039942B8BF1946A06853
:103E100004F04BFCA0B99DB90F48FFF713FF40B960
:103E20000E490C48AC2204F0FAF8AC210B4804F01F
:103E3000BFF986F31188BFF36F8F05E00025B6E761
:103E40003146054800F064FA6FF00A007EE700BFD3
:103E50002F9C0000368E0000000A0020708E0000AB
:103E6000D009002038B50446EFF3058343B1434938
:103E70004348C72204F0D3F8C721404804F098F91A
:103E8000A368002B74D03F4DAA68934273D1E368B6
:103E900043B93A493A48DF2204F0C1F8DF213748F4
:103EA00004F086F9EFF3058343B137493448FD2226
:103EB00004F0B5F8FD21344804F07AF9AB68DB7BF7
:103EC000012B08D130492E48FE2204F0A8F8FE212B
:103ED0002D4804F06DF9AA68D37B013BD373E368E6
:103EE000012B05D9013BE36000F0DEFA002038BD6C
:103EF0004FF02003EFF3118583F31188BFF36F8F29
:103F00002248FFF791FE40B921491D48812204F063
:103F100086F881211E4804F04BF91C48FFF7A0FEEB
:103F20002169A06804F0C1FB204600F0FBFDA06001
:103F300058B190F90E2022610022826700F0B2F998
:103F40002946124800F0E4F9CEE7E0600F48FFF799
:103F500079FE40B90E490A48AC2204F060F8AC2161
:103F60000B4804F025F985F31188BFF36F8FBBE789
:103F70006FF01500BBE74FF0FF30B8E72F9C000053
:103F8000368E0000D0090020519C0000000A00205D
:103F9000708E000038B504464FF02003EFF3118512
:103FA00083F31188BFF36F8F1248FFF73DFE40B9CE
:103FB00011491248812204F032F881210E4804F0A0
:103FC000F7F80C48FFF74CFE204600F0ABFD48B177
:103FD0000022826700F066F92946BDE838400548AE
:103FE00000F096B9D4E902329A4218BF0133A360B7
:103FF000F2E700BF040A0020708E0000368E000039
:10400000F7B5044617461D46EFF305835BB152EA48
:10401000050308D02B492C48792204F000F87921B7
:10402000284804F0C5F84FF02003EFF3118683F31E
:104030001188BFF36F8F2548FFF7F6FD40B924497B
:104040002148812203F0EBFF8121214804F0B0F8E0
:104050001E48FFF705FEA368ABB1013B1B48A360F8
:10406000FFF7F0FD40B91A491748AC2203F0D7FF1B
:10407000AC21174804F09CF886F31188BFF36F8FCA
:10408000002003B0F0BD57EA050313D10F48FFF736
:10409000D9FD40B90E490C48AC2203F0C0FFAC2159
:1040A0000B4804F085F886F31188BFF36F8F6FF02B
:1040B0000F00E6E722463146CDE90075034800F0DF
:1040C00013FBDEE77C9C0000368E0000040A002013
:1040D000708E000010B5084C23685BB1FDF7C8FC7A
:1040E00003462068054A03440021BDE810401361DF
:1040F00001F0C4B810BD00BF100A0020D009002094
:1041000038B5144C234653F8285F9D4200D005B9BA
:10411000E568A36820B1A368AB4217D12B4613E032
:1041200043B90D490D48812203F079FF81210A48E6
:1041300004F03EF8A3685A7BD206ECD1AA69002AA3
:10414000E9D1DA897F2AE6D9636238BDFFF7C2FF79
:10415000E4E700BFD00900209C9C0000368E0000E0
:1041600070B590F90D200446002A437B3BDBDA064C
:1041700039D18269002A36D163F07F0343731A4B29
:1041800098420AD119491A4840F2A63203F047FF73
:1041900040F2A631154804F00BF8164A104650F8C4
:1041A000283F83421DD1D16AC4E900010C60D4626A
:1041B00012E08B42F8D01B68002BF5D094F90E600A
:1041C00093F90E50AE42F4D0AD1B002DF1DD5A68CC
:1041D000C4E9003214605C600020BDE87040FFF765
:1041E0008FBFD16AE8E770BD200100209C9C0000D1
:1041F000368E0000D00900202DE9F04104460D461E
:104200004FF02003EFF3118883F31188BFF36F8F12
:104210001E48FFF709FD40B91D491E48812203F0E1
:10422000FEFE81211A4803F0C3FF00261748FFF75E
:1042300017FD4FF4004740F2E73031464FF47A72F1
:104240000023E4FB0701FBF7F9FFB44202DD02287B
:10425000B8BF0220104B1E61104B1860104B1D6040
:10426000FFF738FF0948FFF7EDFC40B90849094856
:10427000AC2203F0D4FEAC21054803F099FF88F38B
:104280001188BFF36F8FBDE8F08100BF140A0020D2
:10429000708E0000368E0000D0090020100A002029
:1042A0000C0A002038B504464FF02003EFF31185C7
:1042B00083F31188BFF36F8F1248FFF7B5FC40B945
:1042C00011491248812203F0AAFE81210E4803F011
:1042D0006FFF0C48FFF7C4FC2046FFF741FF094879
:1042E000FFF7B0FC40B908490848AC2203F097FE3C
:1042F000AC21054803F05CFF85F31188BFF36F8F95
:1043000038BD00BF140A0020708E0000368E0000F9
:1043100010B503460C46C1B9EFF30582AAB9144A99
:10432000516A9268914210D0FFF78CFC40B9114954
:104330001148C32203F073FEC3210E4803F038FF77
:10434000BDE810400020FDF7AFBE1846FFF77AFC2D
:1043500040B908490848AC2203F061FEAC21054889
:1043600003F026FF84F31188BFF36F8F10BD00BFE9
:10437000D0090020708E0000368E000038B504464B
:104380004FF02003EFF3118583F31188BFF36F8F94
:104390001848FFF749FC40B917491848812203F033
:1043A0003EFE8121144803F003FF1248FFF758FC3A
:1043B000637B5A0711D40F48FFF744FC40B90E49FC
:1043C0000E48AC2203F02BFEAC210B4803F0F0FEAC
:1043D00085F31188BFF36F8F38BD23F004032046A7
:1043E0006373FFF7BDFE2946BDE838400148FFF77B
:1043F0008FBF00BF140A0020708E0000368E0000B0
:1044000038B54FF02003EFF3118583F31188BFF324
:104410006F8F2048FFF708FC40B91F491F488122D1
:1044200003F0FDFD81211C4803F0C2FE1948FFF78F
:1044300017FCEFF3058343B119491848FD2203F037
:10444000EEFDFD21164803F0B3FE164CA368DB7B9E
:10445000012B08D112491148FE2203F0E0FDFE2194
:104460000F4803F0A5FEA268D37B013BD373094834
:10447000FFF7E8FB40B908490848AC2203F0CFFD3C
:10448000AC21054803F094FE85F31188BFF36F8FCC
:1044900038BD00BF140A0020708E0000368E000068
:1044A000519C0000D009002038B54FF02003EFF3F5
:1044B000118583F31188BFF36F8F2448FFF7B4FB96
:1044C00040B923492348812203F0A9FD81212048D6
:1044D00003F06EFE204C1D48FFF7C2FBA368DB7B98
:1044E00053B91E491B484FF4517203F098FD4FF425
:1044F00051711A4803F05CFEEFF3058353B117497D
:10450000144840F2453203F08AFD40F24531134829
:1045100003F04EFEA2680020D37B0133D373FFF774
:10452000EFFD0A48FFF78EFB40B909490948AC2264
:1045300003F075FDAC21064803F03AFE85F31188BF
:10454000BFF36F8FBDE8384004F0CAB8140A0020EA
:10455000708E0000368E0000D00900209C9C000068
:104560000B4B10B599420C460AD10A490A4840F251
:10457000B53203F054FD40F2B531064803F018FEA1
:10458000D4E9003213605A600023C4E9003310BD3F
:10459000200100209C9C0000368E000010B590F990
:1045A0000D200446002A437B06DA03F07F03014610
:1045B00043730648FFF7D4FF054B9868031B584226
:1045C0005841BDE81040FFF79BBD00BFF80900202F
:1045D000D009002038B504460D46FFF7DFFF637BA6
:1045E00043F0020363735DB3164BA5609C420AD18E
:1045F0001549164840F2A63203F011FD40F2A631EB
:10460000114803F0D5FD2B689D4209D16B68C4E9C0
:1046100000531C606C6013E06A689A42F6D01B6815
:10462000002BF3D094F90E1093F90E209142F3D0A1
:10463000521A002AF0DD5A68C4E9003214605C6046
:1046400038BD00BF200100209C9C0000368E000079
:104650002DE9F0410446884616461D464FF02003DA
:10466000EFF3118783F31188BFF36F8F1A48FFF7B9
:10467000DBFA40B919491A48812203F0D0FC8121A4
:10468000164803F095FD1448FFF7EAFA2046414624
:10469000FFF7A0FF1048FFF7D5FA40B90F491048BF
:1046A000AC2203F0BCFCAC210C4803F081FD87F385
:1046B0001188BFF36F8FB5F1FF3F08BFB6F1FF3F21
:1046C00008D032462B4604F118000649BDE8F041F7
:1046D00000F0B4BCBDE8F081140A0020708E000028
:1046E000368E0000954A000038B505460D4B0C4645
:1046F00098680D4B11461860DDE90423FFF7A8FF09
:104700002846FFF79FFA40B908490948C32203F039
:1047100086FCC321054803F04BFD2046BDE8384028
:10472000FDF7C2BCD0090020080A0020708E0000EE
:10473000368E000070B50446183000F02DFD4FF0A5
:104740002003EFF3118683F31188BFF36F8F2048A6
:10475000FFF76AFA40B91F491F48812203F05FFC46
:1047600081211C4803F024FD1948FFF779FA94F9D8
:104770000D20637B002A06DA03F07F0321461748E9
:104780006373FFF7EDFE164D637BA86843F01003DB
:104790006373031B58425841FFF7B2FC0C48FFF704
:1047A00051FA40B90B490C48AC2203F038FCAC215B
:1047B000084803F0FDFC86F31188BFF36F8FAB68E8
:1047C000A34203D1BDE8704003F08ABF70BD00BFB3
:1047D000140A0020708E0000368E0000F8090020B8
:1047E000D009002070B590F90D200446002A437BC3
:1047F00006DA03F07F03014643731E48FFF7B0FE5D
:10480000637B63F07F0363731B4B9C420AD11B499C
:104810001B4840F2A63203F002FC40F2A6311748D2
:1048200003F0C6FC174A104650F8283FD16A83426D
:1048300007D1C4E900010C60D46212E09942F8D0BB
:104840001B68002BF5D094F90E6093F90E50AE4220
:10485000F4D0AD1B002DF1DD5968C4E900310C60C6
:104860005C609068031B58425841BDE87040FFF7F8
:1048700047BC00BFF8090020200100209C9C0000DC
:10488000368E0000D009002038B504464FF02003D2
:10489000EFF3118583F31188BFF36F8F2448FFF77F
:1048A000C3F940B923492448812203F0B8FB812190
:1048B000204803F07DFC1E48FFF7D2F91F4B204A29
:1048C00098681168884213D1FFF704FC1848FFF775
:1048D000B9F940B917491848AC2203F0A0FBAC2144
:1048E000144803F065FC85F31188BFF36F8F38BD62
:1048F00000211160134A1268BAB1C2897F2A14D804
:10490000427BD20611D1104A90F90E1012689142E2
:104910000BDB0E4A904208D01A69A24202DCFFF774
:1049200061FFD1E7121B1A61D0E70022FBE700BF4D
:10493000140A0020708E0000368E0000D00900207E
:10494000080A0020100A00200C0A00202001002084
:10495000F8B504460D464FF02003EFF3118683F3BC
:104960001188BFF36F8F3548FFF75EF940B93449BE
:104970003448812203F053FB8121314803F018FCB5
:104980002E48FFF76DF9637B6DB2DA0627D1A26975
:104990002ABB03F07F03637321462B48FFF7E0FD3A
:1049A000637BA57363F07F036373284B9C420AD13A
:1049B0002749244840F2A63203F031FB40F2A631E9
:1049C000234803F0F5FB234A104650F8283F834262
:1049D00032D1D16AC4E900010C60D46227E0A5732A
:1049E00000241648FFF72EF940B915491548AC22A6
:1049F00003F015FBAC21124803F0DAFB86F31188B3
:104A0000BFF36F8F2046F8BD8B42E3D01B68002BAD
:104A1000E0D094F90E7093F90E50AF42F4D0ED1B34
:104A2000002DF1DD5A68C4E9003214605C60012099
:104A3000FFF766FB0124D4E7D16AE8E7140A0020F7
:104A4000708E0000368E0000F80900202001002042
:104A50009C9C0000D0090020836810B5044653B91F
:104A60000A490B4840F2422203F0D9FA40F24221AF
:104A7000064803F09DFB2146A068FFF771FD637BAC
:104A800023F0020363730023A36010BD9C9C00000D
:104A9000368E000070B504464FF02003EFF3118608
:104AA00083F31188BFF36F8F1B48FFF7BDF840B940
:104AB0001A491B48812203F0B2FA8121174803F0FA
:104AC00077FB1548FFF7CCF814F80B3C13F0280FD0
:104AD00010D154F8103CA4F1180513B12846FFF783
:104AE000BBFF14F80B3C284623F0140304F80B3CDE
:104AF000FFF736FB0848FFF7A5F840B90749084813
:104B0000AC2203F08CFAAC21044803F051FB86F38D
:104B10001188BFF36F8F70BD140A0020708E0000E3
:104B2000368E000070B505464FF02003EFF3118676
:104B300083F31188BFF36F8F1748FFF775F840B9FB
:104B400016491748812203F06AFA8121134803F0BD
:104B50002FFB1148FFF784F82C68A5421AD034B116
:104B60002046FFF779FF04F1180000F015FB0A4812
:104B7000FFF768F840B909490948AC2203F04FFA39
:104B8000AC21064803F014FB86F31188BFF36F8F46
:104B9000204670BD0024EAE7140A0020708E000051
:104BA000368E00000021044B084603F12802C3E9B9
:104BB0000A22FFF721BB00BFD0090020F8B5EFF3B0
:104BC000058353B13849394840F2A14203F027FA2E
:104BD00040F2A141344803F0EBFA4FF02003EFF329
:104BE000118683F31188BFF36F8F3148FFF71CF8EC
:104BF00040B930492D48812203F011FA81212D4816
:104C000003F0D6FA2C4D2A48FFF72AF8A96805F1D7
:104C100028004B7B03F07F034B73FFF7A1FCAC68CC
:104C2000637B63F07F036373244B9C420AD11E496C
:104C30001E4840F2A63203F0F2F940F2A6311A48BB
:104C400003F0B6FAAB6A1E48EA6A834207D1C4E9A8
:104C500000021460EC6212E09A42F8D01B68002B4C
:104C6000F5D094F90E7093F90E108F42F4D0C91B51
:104C70000029F1DD5A68C4E9003214605C6001204B
:104C8000FFF73EFA0A48FEF7DDFF40B90949074839
:104C9000C32203F0C4F9C321064803F089FA304661
:104CA000BDE8F840FDF700BA9C9C0000368E00007D
:104CB000140A0020708E0000D0090020200100207E
:104CC000F80900202DE9F04105460E46EFF3058373
:104CD00053B13A493A4840F2BE4203F0A0F940F2DB
:104CE000BE41364803F064FA55EA060303D1FFF7E4
:104CF00065FF00205FE06FF001044FF0FF33641B9D
:104D000063EB0603012C73F1000302DA03F0F2FCFB
:104D100044194FF02003EFF3118883F31188BFF398
:104D20006F8F2848FEF780FF40B927492448812229
:104D300003F075F98121244803F03AFA234F214802
:104D4000FEF78EFFB868224B1860FFF727FCB868A3
:104D50002A46334618301F4900F070F9BA681948DE
:104D6000537B43F010035373FEF76CFF40B91649B1
:104D70001348C32203F053F9C321134803F018FA70
:104D80004046FDF791F9BB685B7BDB060AD50B4912
:104D90000B4840F2DF4203F042F940F2DF4107489E
:104DA00003F006FA03F0A6FC201A63EB03030128C4
:104DB00073F100039DDBBDE8F08100BF9C9C000007
:104DC000368E0000140A0020708E0000D0090020EA
:104DD000080A0020954A000038B505460C46EFF356
:104DE000058353B11149124840F2EE4203F017F91E
:104DF00040F2EE410D4803F0DBF9B4F1FF3F08BF8C
:104E0000B5F1FF3F06D10B4B9868FFF793FC4FF0CD
:104E1000FF3038BD28462146FFF754FF4FF47A7320
:104E200080FB0303C00B40EA4340F2E79C9C000078
:104E3000368E0000D0090020014B9868704700BFF3
:104E4000D00900202DE9F04104464FF02003EFF394
:104E5000118683F31188BFF36F8F3E48FEF7E4FE9F
:104E600040B93D493D48812203F0D9F881213A48B3
:104E700003F09EF93748FEF7F3FE637B1A0712D55D
:104E80003448FEF7DFFE40B933493448AC2203F022
:104E9000C6F8AC21304803F08BF986F31188BFF3D4
:104EA0006F8FBDE8F08123F0200242F00801D209A3
:104EB00038D16173A36813B12046FFF7CDFD04F12B
:104EC000180000F069F94FF0000804F15807A56DCB
:104ED000BD4200D085BB0120FFF712F9204B9B6833
:104EE000A342CDD1EFF30583002BC9D11948FEF7BA
:104EF000A9FE40B918491948C32203F090F8C3210C
:104F0000154803F055F93046FDF7CEF840F201623E
:104F10001449124803F083F840F20161114803F08C
:104F200047F9ADE703F05F0343F0080321460E485D
:104F30006373FFF715FBBDE72846FFF78DFD05F10D
:104F4000180000F029F92846C5F87880FFF708F91D
:104F5000BDE700BF140A0020708E0000368E0000EE
:104F6000D00900209C9C0000F809002008B50648E4
:104F7000064A0749121A03F031FABDE80840054A0B
:104F80000549064803F02ABA00000020200100204D
:104F90001C9D0000000000001C9D0000000000207F
:104FA000034B1B680BB9FCF763BD0020704700BFC3
:104FB000180A0020124B10B51C689C4204D1FFF760
:104FC000EFFF6FF0004012E0FFF7EAFF0146002C10
:104FD000F7D0D4E90402401A62EBE173012873F1BF
:104FE00000020BDBB0F1004F73F10003E9DA054B6F
:104FF0001B6913B19842A8BF184610BD0020F6E700
:1050000058000020D00900200B4A30B552680368D0
:10501000904209D043B1D3E90421D0E904451219E3
:1050200041EB0501C3E90421426813605A60002383
:10503000C0E9003330BD00BF58000020B3F1FF3F8E
:1050400008BFB2F1FF3F2DE9F04104460E461D4670
:105050001746984600F08780036843B1474948489F
:105060005D2202F0DCFF5D21444803F0A1F8A66058
:105070004FF02003EFF3118683F31188BFF36F8F96
:105080004048FEF7D1FD40B93F493D48812202F03A
:10509000C6FF81213C4803F08BF83A48FEF7E0FD5B
:1050A0006FF001034FF0FF3CDA1B6CEB0802002AA3
:1050B0001EDB3649D1E900209B1A6CEB0000DA1B9D
:1050C00060EB0800012A70F1000301DA01220020E0
:1050D000C4E904202E4A1368D2F804C0934208BFE2
:1050E000002373B9C4E9002CCCF8004054601AE0E6
:1050F000FFF756FF7A1C45F10005121845EBE070EA
:10510000E6E7D3E90407D4E90415814275EB070EFD
:105110002BDA401A596867EB0507C3E90407C4E9AD
:1051200000310C605C60136893420BD09C4209D143
:10513000FFF740FF18B1174B1B69834202D00021D3
:10514000FCF764FC0F48FEF77DFD40B90E490C48A2
:10515000AC2202F064FFAC210B4803F029F886F37F
:105160001188BFF36F8FBDE8F081091A65EB070561
:105170006345C4E90415B5D01B68B2E7BE9C0000C6
:10518000368E00001C0A0020708E000020020020D5
:1051900058000020D009002038B504464FF0200305
:1051A000EFF3118583F31188BFF36F8F1548FEF776
:1051B0003BFD40B914491548812202F030FF81219E
:1051C000114802F0F5FF0F48FEF74AFD2368B3B11E
:1051D0002046FFF719FF00240A48FEF733FD40B9C7
:1051E00009490A48AC2202F01AFFAC21064802F035
:1051F000DFFF85F31188BFF36F8F204638BD6FF056
:105200001504E9E71C0A0020708E0000368E0000AD
:1052100038B54FF02003EFF3118583F31188BFF306
:105220006F8F1348FEF700FD40B9124912488122E2
:1052300002F0F5FE81210F4802F0BAFF0C48FEF79C
:105240000FFDFFF7B7FE04460948FEF7FBFC40B927
:1052500008490948AC2202F0E2FEAC21054802F000
:10526000A7FF85F31188BFF36F8F204638BD00BFBD
:105270001C0A0020708E0000368E000070B50446B7
:105280000D464FF02003EFF3118683F31188BFF32F
:105290006F8F1748FEF7C8FC40B91649164881229F
:1052A00002F0BDFE8121134802F082FF1048FEF794
:1052B000D7FCFFF77FFE012807DDA04205DBA042F7
:1052C0002946A8BF2046FCF7A1FB0948FEF7BAFC17
:1052D00040B908490848AC2202F0A1FEAC210548BB
:1052E00002F066FF86F31188BFF36F8F70BD00BFB9
:1052F0001C0A0020708E0000368E00002DE9F84355
:105300000446FFF7C1FA4FF02003EFF3118583F352
:105310001188BFF36F8F4248FEF786FC40B94149C0
:105320004148812202F07BFE81213E4802F040FF8D
:105330003E4F3B48DFF8F8803E4EFEF791FC3C6064
:10534000D8F800403A6844454FEAE270D6E9001EBA
:105350000BD054B1D4E9043C9A4270EB0C0923DA27
:105360009B1A6CEB000CC4E9043C002451184EEB72
:105370000000C6E900103C60FFF71CFE2146FCF768
:1053800045FB2748FEF75EFC40B926492648AC227B
:1053900002F045FEAC21234802F00AFF85F3118894
:1053A000BFF36F8FBDE8F88359184EEBE370D31A43
:1053B0003B6000220023C6E90010C4E90423204614
:1053C000FFF722FE1648FEF73DFC40B91549164886
:1053D000AC2202F024FEAC21124802F0E9FE85F373
:1053E0001188BFF36F8F2046A36898474FF02003C2
:1053F000EFF3118583F31188BFF36F8F0848FEF731
:1054000013FC40B907490848812202F008FE8121B7
:10541000044802F0CDFE0248FEF722FC90E700BFF0
:105420001C0A0020708E0000368E0000180A002032
:10543000580000202002002070B54FF02003EFF349
:10544000118683F31188BFF36F8F1648FEF7ECFBCC
:1054500040B915491548812202F0E1FD8121124829
:1054600002F0A6FE0F48FEF7FBFBFCF701FB104A1B
:10547000D2E9004504190B4845F10005FEF7E2FBAF
:1054800040B909490948AC2202F0C9FDAC210648DF
:1054900002F08EFE86F31188BFF36F8F20462946F7
:1054A00070BD00BF1C0A0020708E0000368E000008
:1054B00020020020024A0349034802F0B0BD00BFA9
:1054C000968F0000E29C0000EF9C000010B50C4C91
:1054D000236813B10B4B1B682BB900F0BBFA30B932
:1054E0000122084B1A6001230020236010BD0138FF
:1054F000062801D9044810BD044B53F8200010BD04
:10550000200A0020240A0020FE8FFFFF8C8C000060
:10551000BFF34F8F0549064BCA6802F4E06213439C
:10552000CB60BFF34F8F00BFFDE700BF00ED00E091
:105530000400FA054FF0FE33002130B4064A074D4F
:10554000074C2B6013602360064A074CEB606368CE
:10555000C2F8001530BC184704148450001484505D
:10556000081484500000845060000020024BD0E9F1
:105570000012C3E900127047600000202DE9F043DB
:10558000154CDFF85C80002818BF0446206883B003
:1055900040451DD016460D4620464FF4DE7104F1FD
:1055A000040900F09BFE04F58C77484600F03EF9B4
:1055B000384601F075FA4A4638462B4607490096A8
:1055C00001F080FA08B9C4F8008003B0BDE8F083A8
:1055D000002003B0BDE8F08324130020AD58000084
:1055E000A5BCC95AF0B50D4C0D4E002808BF204689
:1055F000076883B0B7420ED100261D4600F58C70B7
:1056000033460096144601F0ADFA002818BF344620
:105610002C6003B0F0BD0348FBE700BF241300205B
:10562000A5BCC95AE88FFFFF10B5044630B16368C6
:10563000DB0602D500232360636010BD024B0348E4
:105640005B689847F3E700BF60000020A88C00006B
:1056500068B143683BB1DB0607D5BFF35F8F00231A
:1056600003601846704703487047034870476FF45B
:10567000E0407047EA8FFFFFE98FFFFF10B5044657
:1056800020B1002211232260636010BD0148FFF7A2
:1056900051FFF6E7D08C0000A0B1436883B1DB0670
:1056A0000CD50122D0E8EF3FC0E8E12F0029F9D165
:1056B000012BF7D0BFF35F8F00207047034870477E
:1056C000034870476FF4E040704700BFE98FFFFF69
:1056D000EA8FFFFF2DE9F041144C0268C368D0E95E
:1056E0000156C4E90263C4E90025114B0E684868FD
:1056F000104DC3E90060D1E902760869D5F81411AC
:10570000C3E902761861CB060DD5002305F5887034
:10571000C5E94433C5E96D339047236805F5DA7070
:10572000BDE8F0411847BDE8F08100BF70000020DF
:1057300080000020241300202DE9F043202B1D467B
:105740000646894690468BB026D8DBB202AF316858
:105750008DF804908DF8053006F1040921B948460A
:1057600000F062FE044640B901230222484633603D
:1057700001A900F06DFE044638B13846202100F042
:10578000ADFD20460BB0BDE8F0832A4641464846B1
:1057900000F05EFE0446F0E702AF19461046002313
:1057A0003A4601F0D3FA04460028E6D12023B84651
:1057B0001D46CCE7F0B5D0F8F430A7B0002BD8BF29
:1057C00002AE2CDD05460023D0F8084102AE01935D
:1057D000A4F101073146D5F8F8409022D0F8FC003A
:1057E00001ABB7FA87F7A0477F09044610B9019BC0
:1057F0003BB9A7B13046902100F070FD204627B09C
:10580000F0BD014632462846FFF796FF50B9D5F85D
:105810000031019A1344C5F80031002FEAD16FF02E
:105820003C04E7E70446204627B0F0BD70B50025EC
:10583000044629461422C0F8F450F83002F0D9FD8D
:10584000164B04F586761B6830469847204640F88C
:10585000045B00F0CFFD124B30461B689847D8B967
:10586000D4F8F430AB4211DC0121202503EB830294
:1058700004EB8202C2F8FC000A480B44C2F804514F
:10588000C2F8F800C2F80811C4F8F430064B3046EC
:10589000BDE870401B68184770BD00BFC400002001
:1058A000C8000020F1620000CC0000202DE9F04784
:1058B000202A88B078D83E4B00F5867904461B68CC
:1058C0004846174688469847054640BB40F20116B1
:1058D000D4F8F430002B63D02046FFF76BFF054669
:1058E00000285FD1D4F8F430002B07DDD4E9400262
:1058F000904203D3D4F80821012A14D0013EE9D103
:105900006FF03B056E463046202100F0E7FC294B46
:1059100048461B689847002818BF6FF01D052846A9
:1059200008B0BDE8F0871F28E8D96E462946202236
:10593000304604F1040A02F05CFD3146504600F0A6
:105940008FFD05460028DED1504600F067FD504629
:1059500000F050FD2946504600F066FD054600283F
:10596000D1D150462022314600F072FD0546002874
:10597000C9D1034632462021304601F0E7F90546F9
:105980000028C0D1D4F8F4303A46002BC8BF002319
:1059900040463146C8BFC4F8003102F01FFDB2E7EF
:1059A0006FF03F056E46AEE76FF03B05B7E700BF0F
:1059B000C8000020CC000020002130B58DB0282286
:1059C00002A8019102F015FD02A801F0E7F90446D2
:1059D00010B120460DB030BD184D4FF0FF31286892
:1059E00000F03AF90446C0B9002000F065F900BBA8
:1059F000134A02A901A800F063FC0446012000F04C
:105A00005BF990B9286800F02FF90028E1D00D4823
:105A1000FFF790FD20460DB030BD0B48FFF78AFD23
:105A2000012C08BF0524EDD0DEE70848FFF782FD12
:105A3000E8E70748FFF77EFDDAE700BFC000002077
:105A4000A00A00204C8D0000F48C00002C8D00007A
:105A50000C8D000010B582B000F054F828B100F0B1
:105A6000A3F80324204602B010BD00F06FF8D0B9AF
:105A700000F022F9D8B91E4B1B681B0EF02B0AD17F
:105A80001C4A1D4B12689A4229D000F03DF80724A9
:105A900000F08AF8E6E7062400F036F800F084F813
:105AA000204602B010BD0424204602B010BD00F014
:105AB0002BF800F079F8FFF77FFF044658B902464B
:105AC0000146FFF75BFD30B968220C4901ABFFF7D7
:105AD00089FD0028C6D00524204602B010BD012053
