:020000040000FA
:10000000E0240020B5230000AD840000152400008A
:1000100015240000152400001524000015240000FC
:10002000000000000000000000000000952100001A
:1000300015240000000000003D210000A51800006C
:100040007523000075230000752300007523000050
:100050007523000075230000752300007523000040
:100060007523000075230000752300007523000030
:100070007523000075230000752300007523000020
:100080007523000075230000752300007523000010
:100090007523000075230000752300007523000000
:1000A00075230000752300007523000075230000F0
:1000B00075230000752300007523000075230000E0
:1000C00075230000752300007523000075230000D0
:1000D00075230000752300007523000075230000C0
:1000E00075230000752300007523000075230000B0
:1000F00075230000752300007523000075230000A0
:10010000752300007523000075230000752300008F
:10011000752300007523000075230000752300007F
:10012000752300007523000075230000752300006F
:10013000752300007523000075230000752300005F
:100140007523000000000000000000000000000017
:10015000000000000000000000000000000000009F
:10016000000000000000000000000000000000008F
:10017000000000000000000000000000000000007F
:10018000000000000000000000000000000000006F
:10019000000000000000000000000000000000005F
:1001A000000000000000000000000000000000004F
:1001B000000000000000000000000000000000003F
:1001C000000000000000000000000000000000002F
:1001D000000000000000000000000000000000001F
:1001E000000000000000000000000000000000000F
:1001F00000000000000000000000000000000000FF
:10020000DEE61E284CBBCE8F025B00003C000000E7
:1002100000000100010000000000000000000000DC
:10022000FFFF02910000000000000000000000003D
:1002300000000000000000000000000053B94AB9AF
:10024000002908BF00281CBF4FF0FF314FF0FF30DE
:1002500000F070B9ADF1080C6DE904CE00F006F8BD
:10026000DDF804E0DDE9022304B070472DE9F04732
:10027000089E0D4604468A46002B7FD18A421746C7
:1002800041D9B2FA82F24AB1C2F1200105FA02F371
:100290009740944020FA01F141EA030A4FEA1748D7
:1002A0004FEA144C1FFA87F9BAFBF8FE08FB1EA3AD
:1002B0000EFB09F14CEA0343994206D9FB1802D21E
:1002C000994200F224810EF1FF3E591AA3B2B1FB0C
:1002D000F8F008FB101100FB09F943EA0144A145BD
:1002E00005D93C1902D2A14500F20E810138A4EBD8
:1002F000090440EA0E4000211EB1D4400023C6E9A3
:100300000043BDE8F08702B9FFDEB2FA82F2002AAC
:100310004FD1CB1B4FEA174E1FFA87F80121250C4E
:10032000B3FBFEFC0EFB1C302B4608FB0CF945EA28
:100330000045A9450AD97D192CBF01230023A945F1
:1003400002D9002B00F0D9800CF1FF3CA5EB090588
:10035000A3B2B5FBFEF00EFB105508FB00F843EA14
:100360000544A04505D93C1902D2A04500F2C98038
:100370000138A4EB080440EA0C40BDE78B4208D9E1
:10038000002E00F0B1800021C6E900050846BDE856
:10039000F087B3FA83F1002946D1AB42C0F0A780C1
:1003A000824240F2A4800846002EAAD0C6E9004A44
:1003B000A7E7C2F12000974001FA02F34FEA174E77
:1003C000C14024FA00F51FFA87F894401D43B1FBA1
:1003D000FEF02B0C0EFB101100FB08FC43EA01435E
:1003E0009C4509D9FB182CBF012100219C4502D94D
:1003F000002900F095800138A3EB0C03ADB2B3FBEC
:10040000FEF10EFB113301FB08FC45EA0345AC4548
:1004100005D97D1902D2AC4500F289800139A5EBDE
:100420000C0341EA00417AE7C1F120048B4002FA53
:1004300001F705FA01FCE24020FA04F8E54000FA71
:1004400001FE134348EA0C024FEA13484FEA124CEC
:100450001FFA83F9B5FBF8FA08FB1A550AFB09F0F5
:100460004CEA054C60450AD913EB0C0C2CBF012556
:100470000025604501D9002D55D00AF1FF3AACEBBB
:10048000000C92B2BCFBF8F008FB10CC00FB09F9A1
:1004900042EA0C4CE14505D913EB0C0C01D2E145C5
:1004A0003BD8013840EA0A40ACEB090CA0FB0789B5
:1004B000CC4545464A4602D306D1C64504D201384A
:1004C000B8EB070569EB03022EB3BEEB05036CEB3B
:1004D000020C23FA01F20CFA04F42CFA01F30021C5
:1004E0001443C6E900430CE73146304609E7841A55
:1004F00065EB030301209A4656E7ACF1020C3D443C
:1005000024E702383C4434E702383C44EFE6AEF1DD
:10051000020E3B44D9E63146F3E602389C44C1E77B
:1005200002383B4468E7AAF1020A9C44A7E7023973
:100530003D4474E7704700BF2DE9E04F2746A046D1
:10054000A146A246A346A446A2B02DEC000A84F31D
:10055000008825462646A4473DEC000A22B0BDE8A7
:10056000E08F000038B54468054604F00304032C0E
:10057000816002D02CB1002000E0006800236B6095
:1005800038BD45220449054807F002FE45210248CE
:1005900007F0CAFEEFE700BF838F0000A68F0000C0
:1005A0000B6801330B60014B1B68184700000020EB
:1005B000014B1860704700BF0000002007B50B46D4
:1005C000002102460191034801A900F06DFA03B031
:1005D0005DF804FBA10500002DE9F74FB0F81CA061
:1005E00004461AF0080F93461CD001290CBF4AF0AC
:1005F000100A4AF0200AA0F81CA004F1140003F02D
:1006000097FB40B9BA49BB48AC2207F0C1FDAC2109
:10061000B74807F089FE8BF31188BFF36F8F03B0E3
:10062000BDE8F08FB44FDFF8CC820AF0070A022948
:1006300006D1204607F0B9FD0028DED0012865D19B
:10064000D4F81890A38BB9F1000F19DA00262568A9
:1006500023F00703C4E9006643F00103A383A38BDF
:1006600003F007025245009203D0A268002A40F02E
:10067000F18015B9002E00F02B814FF0000AEBE05D
:1006800003F00702511F012922D8002123F007039C
:10069000062A25689BB2C4E900110CD18D422A4676
:1006A00038BF0A462AB1E18B12680131E183002A82
:1006B000F8D143F002032046A38307F076FD0646F7
:1006C0000028CCD0A38B43F02003A3830026C6E7E9
:1006D000042A0DD123F007039AB22046A28307F023
:1006E00064FD054680B142F020020025A283EDE7BB
:1006F00040F21B123946404607F04AFD40F21B11FA
:10070000384607F011FE00252E46A8E7032831D110
:10071000BAF1000F0AD0394640464FF4AB7207F0E9
:1007200037FD4FF4AB71384607F0FEFD236853B92F
:100730003946404640F2571207F02AFD40F2571161
:10074000384607F0F1FD23691E6856B93946404620
:100750004FF4AD7207F01CFD4FF4AD71384607F051
:10076000E3FDA38B23F0070343F006030025A383D7
:10077000A94674E704282ED1BAF1020F0AD03946EF
:10078000404640F25D1207F003FD40F25D1138462D
:1007900007F0CAFDE38B53B1394640464FF4AF72C0
:1007A00007F0F6FC4FF4AF71384607F0BDFD236942
:1007B0005E6856B93946404640F2611207F0E8FCDF
:1007C00040F26111384607F0AFFDA38B23F0070319
:1007D00043F00403CAE705282ED1BAF1010F0AD06D
:1007E000394640464FF4B27207F0D2FC4FF4B27172
:1007F000384607F099FD236853B93946404640F220
:10080000651207F0C5FC40F26511384607F08CFD13
:1008100023699E6856B9394640464FF4B47207F0D2
:10082000B7FC4FF4B471384607F07EFDA38B23F07C
:10083000070343F0050399E7002540F26B123946A0
:10084000404607F0A5FC40F26B11384607F06CFDFE
:100850002E468DE74FF0010A43F00803A38304F10D
:1008600014031846019303F063FA40B94046204947
:10087000AC2207F08DFCAC211D4807F055FD8BF331
:100880001188BFF36F8FBAF1000F39D1002D4CD111
:1008900016B120461949B0474FF02003EFF3118BF2
:1008A00083F31188BFF36F8F019803F033FA40B9D7
:1008B00040460F49812207F06BFC81210C4807F06C
:1008C00033FD019803F042FAA38B23F00803A383BE
:1008D000A38BDA0631D5012123F01003A383B4F8EA
:1008E0001CA00AF0070A00297FF4A1AE85E600BF2C
:1008F000E08F0000A68F0000BE8F00004D090000B1
:10090000A1680029C2D00B68002B38BF00239A468B
:1009100020464B46D1F804B0009AD847BAF1000FF0
:10092000B4D05146DAF80030EEE729464B4620466F
:10093000009A2D6807F055FCA8E713F020011EBFB0
:1009400023F020030221A383C9E700BFF8B50446C2
:100950000D4600F114064FF02003EFF3118783F3E7
:100960001188BFF36F8F304603F0D4F940B90A49BC
:100970000A48812207F00CFC8121074807F0D4FCCB
:10098000304603F0E3F93A462046A5610121BDE86F
:10099000F840FFF721BE00BFE08F0000A68F0000E7
:1009A0002DE9F04704460F4607F031FC051E54DBE5
:1009B00004F114094FF02003EFF3118A83F3118837
:1009C000BFF36F8F484603F0A5F940B93349344867
:1009D000812207F0DDFB8121304807F0A5FC484665
:1009E00003F0B4F94FF6FF71E38BA28B8B4202F058
:1009F00007064AD0022E1FD135464FF001080133B9
:100A0000E383484603F094F940B924492448AC22D2
:100A100007F0BEFBAC21214807F086FC8AF3118861
:100A2000BFF36F8FB8F1000F17D00023324639465D
:100A3000204607F0D6FB10E0930701D0062E0FD119
:100A400000233B606368EBB9C4E900773546F6B92B
:100A5000524602212046FFF7BFFD2846BDE8F08739
:100A6000052E17D0012E0AD00E490D4840F2C912AA
:100A700007F08EFB40F2C9110A4807F055FC6FF0F1
:100A8000040504E01F606760E0E76FF00A054FF0BF
:100A90000008B6E76FF08505F9E700BFE08F0000BA
:100AA000A68F0000BE8F00002DE9F04F8B469246C6
:100AB0001C46002591B002909AF8000008B928461B
:100AC0005EE325280AF1010707D05946029B9847A3
:100AD0000028C0F25583013510E2182200210AA82F
:100AE00007F047FD9AF80130252B78D00022944674
:100AF000164696461046394617F8013B2B2B00F058
:100B00009D8000F29480202B00F09B80232B00F02E
:100B10009A8028B19DF8300040F004008DF8300034
:100B2000BEF1000F05D09DF8300040F008008DF8B0
:100B300030002EB19DF8300040F010008DF83000EC
:100B4000BCF1000F05D09DF8300040F020008DF87A
:100B500030002AB19DF8302042F040028DF830205C
:100B60009DF8302002F04400442803D16FF3861230
:100B70008DF830209DF830202A2B42F080028DF82D
:100B800030207BD19DF831204B1C42F001028DF8C2
:100B900031201A782E2A0CBF012100219DF8312026
:100BA00061F341028DF8312074D15A782A2A6AD033
:100BB00000210A260133184610F8012BA2F1300754
:100BC000092F40F28E809DF830200E91C2F3400034
:100BD00040EAD17161F341028DF830205AE00AF108
:100BE00002078DF833309DF83130D90740F1498143
:100BF00054F8049BB9F1000F07DA9DF83020C9F1D1
:100C0000000942F004028DF830205A0740F1428179
:100C100054F8048BB8F1000F80F241819DF8313017
:100C20006FF341038DF831304FF0FF3837E12D2B52
:100C30000CD0302B7FF46DAF01225CE74FF0010E3A
:100C400059E7012657E74FF0010C54E7012052E71E
:100C500033460CFB0202303A1E4616F8010BA0F197
:100C60003007092FF4D9994293D09DF830100D9296
:100C7000D20F62F341018DF830108AE70B46002253
:100C80004FF00A0CE8E79DF83120023342F00402ED
:100C90008DF831201F4617F8012B6C2A41D025D83A
:100CA000682A2BD06A2A46D04C2A4CD01F4617F807
:100CB000012B9DF83130782A8DF8332000F2D9804D
:100CC000572A4DD8412A03D0453A022A00F2D18052
:100CD00004229DF8323062F302038DF83230012392
:100CE0009EE006FB01210346303964E7742A26D0D2
:100CF0007A2ADBD106229DF831300DE05A78682A35
:100D00009DF8312006D1012161F3C6028DF8312012
:100D10009F1CCCE71346022262F3C6038DF83130E4
:100D2000C5E75A786C2A9DF8312001D10421EBE700
:100D300013460322F0E705229DF83130ECE7072245
:100D40009DF83130E8E7BDF8303023F4F04323F06C
:100D5000020343F4804343F00203ADF83030A6E7CA
:100D6000A2F15801202900F2848001A050F821F05E
:100D7000350E0000730E0000730E0000730E0000AD
:100D8000730E0000730E0000730E0000730E00005F
:100D9000730E0000D10C0000730E0000350E000031
:100DA000F50D0000D10C0000D10C0000D10C0000AA
:100DB000730E0000F50D0000730E0000730E0000AE
:100DC000730E0000730E00003D0E0000350E000093
:100DD000590E0000730E0000730E0000590E000043
:100DE000730E0000350E0000730E0000730E00003D
:100DF000350E000001209DF8321003F0780360F3F7
:100E00000201402B8DF8321002BF9DF8301041F0E6
:100E100001018DF83010632A31D1003B18BF012346
:100E20009DF83020C2F340010B4363F341028DF87B
:100E30003020D8E602209DF83210DEE703219DF82D
:100E4000322003F07803A3F1400061F30202434231
:100E50008DF832204341E3E703219DF8322013F05F
:100E6000780F61F3020214BF012300238DF83220B2
:100E7000D6E79DF8303043F001038DF83030002381
:100E8000CEE79DF93020002AACBF4FF0FF39DDF8E6
:100E90003490BAE69B077FF5C7AEDDF838800023B3
:100EA000CDE90D339DF832309DF8312003F0070372
:100EB000012BC2F3C30236D1D31E042B20D8DFE8A6
:100EC00003F00307071F1F0054F8040BC11704E0C9
:100ED000073424F00704F4E80201CDE90A019DF883
:100EE000303013F0030654D03B4652465946029820
:100EF00007F004FA0028C0F243810544BA46DBE556
:100F000054F8040B012A4FEAE071CDE90A0105D13A
:100F10009DF828300A9300230B93E0E7022ADED1E4
:100F2000BDF92800D2E7022B23D1D31E042B13D8FE
:100F3000DFE803F0030A0A12120000212068231DD3
:100F40000A900B911C46CAE7073424F00703F3E824
:100F50000201CDE90A01F5E754F8043B012A0A939E
:100F60004FF000030B93D3D0022AB8D1BDF828303C
:100F7000D0E7042B07D1073424F00704F4E802017A
:100F8000CDE90A01ABE7032B04BF54F8043B0A93F5
:100F9000A5E79DF833007828B0D8622822D8252804
:100FA0003FF493AD5828A9D1DDE90A010DF12603DC
:100FB00000930CAA04AB07F056F98246B8F1000F73
:100FC0000DF126000CDB9DF83020A0EB0A036FF337
:100FD000861298458DF8302002D9A8EB03030D93B3
:100FE00080463DE06338152888D801A151F820F0EB
:100FF00071100000D5100000FD0E0000FD0E000075
:10100000FD0E0000FD0E0000D5100000FD0E0000DA
:10101000FD0E0000FD0E0000FD0E0000331100006B
:101020000111000005110000FD0E0000FD0E000082
:1010300049100000FD0E000001110000FD0E00002F
:10104000FD0E000001110000B8F1000FDDF828A02E
:101050000ADB4146504607F045FA00260AEB000835
:10106000BAF1000F0CD149E7504607F034FAF4E723
:1010700000260A9B0DF111088DF810300DF1100AB1
:10108000A8EB0A0306B101339DF83220D0066BD5D8
:10109000023352060D9948BF0E9A0B4448BF9B1865
:1010A000B9F1000F79DD9DF83020A9EB0309C2F3F7
:1010B00080030393530770D4500664D546B1594654
:1010C0003046029B984700285ADB039B01351E4699
:1010D000302359E01E0711D413F0100618BF202644
:1010E000DDE90A23002A73F10001BFF65DAF524229
:1010F00063EB43032D26CDE90A2355E72B26EFE7C3
:10110000002651E70A9848B30DF126030093002109
:1011100004AB0CAA07F0A7F8BDF83230824603F002
:10112000EF0343F4F04343F010030026ADF83230F0
:1011300044E70A9B072A3FF6E1AEDFE802F00D0420
:10114000060D08080D0D1D70D8E61D80D6E6284650
:10115000E917C3E90001D1E61D60CFE6DFF8C480DE
:101160000646A8F1050A8BE7110748BF013390E74F
:10117000184603935946029B98470028039B04DABC
:1011800011B0BDE8F08F20234D444A46002AA5EB5C
:10119000090109F1FF39EBDC0D4636B159463046FD
:1011A000029B98470028EBDB01359DF83230D906C9
:1011B00001D41A0706D559463020029B98470028CB
:1011C000DEDB01359DF83230DB0607D559469DF848
:1011D0003300029B98470028D2DB01350D9E2E4438
:1011E000731B002B16DC434652465946029807F003
:1011F00085F80028C4DB0544A944A9EB0503002BAE
:101200007FF77CAE59462020029B98470028B7DB29
:101210000135F2E759463020029B98470028AFDBA2
:101220000135DDE70B900000044608B54FF02002C1
:10123000EFF3118382F31188BFF36F8F07F0F7F894
:10124000204601F061FB034806F0A2FF01F02CF8F4
:10125000FCE700BF0C9000004FF02002EFF3118379
:1012600082F31188BFF36F8F0121044AC2F8401541
:1012700083F31188BFF36F8F0020704700900350F5
:1012800020B1034B800143F001031847704700BFB2
:10129000108C000084B004AB03E907009DF8043013
:1012A000062B07D10122044BC3F80025BFF34F8F53
:1012B00020BFFDE704B0704700400050F8B5054678
:1012C0004FF02003EFF3118683F31188BFF36F8F84
:1012D000194802F01FFD40B918491948812206F04B
:1012E00057FF8121154807F01FF8134802F02EFD23
:1012F000144B1C68002C38BF00245CB1124FD4E999
:101300000132002D08BF13460BB138789847246886
:10131000002CF4D1084802F00BFD40B907490848F9
:10132000AC2206F035FFAC21044806F0FDFF86F341
:101330001188BFF36F8FF8BD28020020E08F0000F6
:10134000A68F00002C020020340200201FB50F4B96
:101350001A68BAB901221A600D4A01AB07CA83E8BC
:1013600007000C4A4AB193E8070006F0E5FF0020A9
:1013700005B05DF804EBFFF7A1BF82F31188BFF35E
:101380006F8FF4E705B05DF804FB00BF0400002098
:101390003402002039830000F0B589B06E46214C3C
:1013A00001460546304606F0DFFF96E8070084E870
:1013B0000700207898B300201B4B18606B1C19D0D5
:1013C000914208D219491A48CB2206F0E1FECB21FE
:1013D000164806F0A9FF4FF400460021A7681548FB
:1013E0000023E6FB0701144AFEF728FF0121281A13
:1013F00003F0EAFF02F08EFF0120FFF75FFF94E8A1
:10140000070005AB83E807000C4A1AB193E8070010
:10141000FFF740FFFFF79AFF03F064F9207809B067
:10142000F0BD00BF3402002004000020399000000D
:10143000A68F00003F420F0040420F0095120000AF
:1014400010B5074802F070F9064C074B18602046AB
:1014500001F020FD2046FFF7ABF8002010BD00BFD3
:10146000649000006D140000400200200A2838B586
:101470000446074D04D1286883680D215B689847AE
:1014800028688368E1B25B689847204638BD00BF92
:10149000400200202DE9F0410E4C0746051BC5F324
:1014A00047130C255D4305F148000E4620444021BA
:1014B00006F05FFF011E08DB074B2C44C4E9103621
:1014C000064B5B59BDE8F041184738463346BDE846
:1014D000F041184758020020D58300002C8C0000F2
:1014E00038B5CCB2012C054608D9084908487E22F7
:1014F00006F04EFE7E21054806F016FF0C212B69F2
:1015000004FB0134A06C00F0070038BD6B900000B4
:10151000A68F0000F8B5CCB2012C05461646076927
:101520000AD91849184840F2531206F031FE40F229
:101530005311144806F0F8FE4FF02003EFF3118228
:1015400083F31188BFF36F8F0C2303FB0471896C45
:1015500011F0C00101D08E4211D10121002003FB06
:101560000473996482F31188BFF36F8F30B90C2331
:10157000696803FB0414636898470020F8BD4FF0C6
:10158000FF30EFE76B900000A68F000070B50D46AE
:1015900006490446411A491140220548FFF7BAFF9F
:1015A0002B4601462046BDE87040184758020020EF
:1015B000D488000070B5002201210446052000F007
:1015C00017FE052000F0F6FD0F4801F065FF0F4BF8
:1015D000984215D101F080FF26690D49304606F08A
:1015E00025FE00280BDB0125B5642469084904F1B8
:1015F000200006F01BFE002801DB0020656570BDA1
:101600006FF00400FBE700BF491600000000AD0BBF
:10161000448C000001460C2300224B43084870B55F
:10162000C4184833D4E910561844226406F0BFFEAB
:101630002DB132462B46BDE870400248184770BDB8
:1016400058020020D4880000012808B506D00328DD
:1016500008D0A0B90F4B9B6C5B0719D1BDE80840BF
:10166000FFF7D8BF0C4940F266220C4806F090FD07
:1016700040F26621BDE80840074806F055BE06491D
:1016800040F26A22054806F083FD40F26A21F1E744
:1016900008BD00BF580200206B900000A68F00001C
:1016A00008B54FF02003EFF3118183F31188BFF3E6
:1016B0006F8F124A136843F0020013F001031060A9
:1016C0000CD04FF05022D2F80C34D2F80C2413F086
:1016D000010303D00A4806F06AFE012381F3118852
:1016E000BFF36F8F23B1BDE808400020FFF792BF22
:1016F0000120BDE8084001F00DBF00BFB00200208E
:10170000A0020020074BD3E8EF2F22F00201C3E82C
:10171000E01F0028F7D1D30702D4012001F04ABF0F
:10172000704700BFB00200201FB500220123CDE9A1
:1017300002236B46084ACDF800D0CDF804D006F05D
:101740005BFE002805DB4FF480420023684602F070
:10175000D7FC05B05DF804FBF38300002DE9F843E6
:10176000012205464649D1E8EF3FC1E8E02F0028B5
:10177000F9D19BB9434944484B60CB608A60FFF77D
:101780000FF900280ADA4149414840F2262206F0C2
:10179000FFFC40F226213D4806F0C6FDADB36B1EAE
:1017A000012B59D8012D07D14FF05023D3F81C3409
:1017B00003F00303022B28D007F01AF8044618B9E7
:1017C000344B1B78002B54D14FF02003EFF31186DC
:1017D00083F31188BFF36F8F01242F4FDFF8BC8094
:1017E000DFF8BC904FF05022D2F81834D2F8182409
:1017F000D2030CD503F00303022B01D0012D06D137
:1018000024B386F31188BFF36F8FBDE8F883C4B1AA
:10181000304600F057FD4FF05022D2F81835DBB2B9
:10182000012BDFD139680029DCD00021396039680B
:101830000221C2F818152022C8F88021C9F800300A
:10184000D0E70021212003F05FFBE4E74FF05023B5
:101850000222C3F80423D8E70C490D484FF40E7256
:1018600006F096FCBDE8F8434FF40E71074806F009
:101870005BBD4FF0502302220646C3F80823ACE7B5
:10188000B402002048020020780200206B90000083
:10189000A68F0000211300200451005000E100E059
:1018A0000850005010B5064C06482146172206F095
:1018B0006FFC2046BDE81040172106F035BD00BF83
:1018C000C2900000A68F0000044A1368C81A20F0D6
:1018D0007F400344136003F0B5BD00BFC802002081
:1018E0002DE9F0474FF480374FF00009860000F1F2
:1018F000500406F15026A40006F58036A4B204F187
:101900005024D6F84035DFF86C8021F07F4504F58F
:1019100080348740D8F804A5A3EB0A0323F07F4363
:101920002AF07F42012BC6F8402502D1132006F091
:1019300099FF0AF10202AB1A23F07F43B3F5000FBF
:1019400088BF1546C4F80090236825F07F43C8F887
:101950004473C6F84035D8F804359A4506D0EB1ADA
:10196000023B23F07F43B3F5000F01D8BDE8F087B9
:101970002B46CFE700500150F8B50026134C144F0A
:1019800000202568134B06B1F8BDD3F80423D20319
:10199000FAD53A68002AF7D03E603A684FF48032B0
:1019A000C3F84823D3F84015D3F804250126531A69
:1019B00023F07F43B3F5000F88BF11461DB1626865
:1019C0002060A847DCE72560DEE700BFBC020020FE
:1019D000405101500050015038B500244FF480337D
:1019E0004FF400120D4D0121C5F80845C5F8043328
:1019F0000B4B1520C3F88021224600F0F9FB15207F
:101A000000F0D8FB0123074A02201360064A2B602E
:101A10001360FFF7A3FE204638BD00BF0050015001
:101A200000E100E008500150C4020020134BB0F167
:101A3000FF3F08BF1846013800281CDD9842A8BFA8
:101A400018460F4BD3F804250E4B1968521A12F49E
:101A5000000F18BF002022F07F4301330A4A0344DD
:101A60000A48106000205060044A934294BFC9188D
:101A70008918FFF735BF0020E3E700BFFFFF7F00B5
:101A800000500150C8020020BC020020C91800000C
:101A9000044BD3F80405044B1B68C01A20F07F40A8
:101AA000704700BF00500150C802002000280DDB25
:101AB0000122430900F01F0002FA00F0044A20331B
:101AC00042F82300BFF34F8FBFF36F8F704700BF03
:101AD00000E100E0F7B500281C4614BF4FF40053A6
:101AE0004FF400438A420BD294222749274806F03C
:101AF0004FFB9421244803B0BDE8F04006F014BC2D
:101B000040D00D46224E002839D005F5E07701354A
:101B1000AA4246F82740F6D802FB03F0013A4B43AD
:101B200000901C4806F034FB1B4B14F0100F1B49AF
:101B30001B4808BF194606F02BFB14F0040F14BF16
:101B400072212D21174806F023FB14F0020F14BF59
:101B500077212D21134806F01BFB14F0010F0CBF59
:101B60002D2178210F4806F013FB6C210D4806F05B
:101B70000FFB0D4803B0BDE8F04006F009BB05F5CA
:101B8000C077C4E703B0F0BD13910000A68F00003A
:101B9000003000503491000007910000FE900000DA
:101BA000E59200004E910000CF9C000030B54FF44C
:101BB000803485B04FF480312548264D06F0E8FA90
:101BC0002168254806F0E4FA2968244806F0E0FA7E
:101BD00010220021684606F0CCFC2368684600937A
:101BE000029400F0F7FE012000F024FF002000F036
:101BF0000DFF002000F032FF0121002000F04CFF1B
:101C000000F040FF16482C6806F0C2FA0820FFF7E3
:101C10004DFF144A24F00104D2F82038002B07DAD3
:101C200003F00303023B012B9CBF0F4BC2F820388B
:101C30000121082006F003FCBFF34F8FBFF36F8F25
:101C4000640864002046214622462346FEF774FCC1
:101C50005191000004000100689100007D91000096
:101C60009B91000000300050000100802DE9F843F6
:101C70005E4806F08DFA002140F217130846022252
:101C8000FFF728FF5A4D40F20713202202210020BF
:101C9000FFF720FF574806F07BFAC5F30E04564BBA
:101CA000C4F500449C4208D254495548822206F0AB
:101CB0006FFA8221514806F037FB524EC4F34314A9
:101CC000D6F80025C5F3C435D2050AD54E494C488F
:101CD0004FF4BD7206F05CFA4FF4BD714A4806F04D
:101CE00023FBD6F80435DB050AD54749444840F2C2
:101CF0007B1206F04DFA40F27B11434806F014FBCC
:101D0000404B4248C3F80055C3F80445D3F80015CA
:101D1000D3F80425520106F03BFA364806F038FAAB
:101D200000F08AF8014610B1394806F031FA002473
:101D3000384806F02DFA40F217130822002101203E
:101D4000FFF7C8FE2F4D40F2071320220821012083
:101D5000FFF7C0FE274806F01BFAC5F880442E485E
:101D600006F016FA2D4EC5F8C0442D4F2D4DDFF864
:101D7000C48095F805902146B9F1000F14BF334691
:101D80003B4640462A6806F003FAB9F1000F0CD131
:101D90002548013406F0FCF91C2C05F10805E8D1B2
:101DA0001448BDE8F84306F0F3B995F8049095F9A6
:101DB0000400FFF77BFE4FEA890303F1A04303F51C
:101DC0004053B9F1310FD3F8002806D0002A07DAC2
:101DD00002F00302023A012A02D8144AC3F800288A
:101DE0000121484606F02BFB1148D2E7D1910000B3
:101DF000E0FF0000CF9C00002000000013910000D5
:101E0000A68F000000300050F591000027920000DE
:101E10006D9200009D920000BF920000C6910000EC
:101E20000B910000508C0000E8920000000100803F
:101E3000EF920000DB92000000220248114603F0FE
:101E400057BC00BFCC02002070B50C4615460646B4
:101E500050B96FF01500BDE8704071467246734688
:101E6000F4468EF3008C7447002AF2D006F02EFB65
:101E70000128EED00C4B9C420BD92A1903F61D23E6
:101E80009A4209D82A462146304606F067FB0020D0
:101E9000E1E7064B9C4203D9054B2A199A42F1D936
:101EA0004FF0FF30D7E700BF0302FF002F01FF0014
:101EB0003801FF0070B506460D46144606F006FBD5
:101EC00001280DD0204606F001FB012808D023464A
:101ED0002A463146084803F03FFC2368AB4201D054
:101EE0006FF01500BDE87040714672467346F446C7
:101EF0008EF3008C744700BFCC0200202DE9F04F18
:101F000081460D4685B081B306F0E0FA01282CD158
:101F1000284606F0DBFA012827D04FF00008DFF84A
:101F20005CB0DFF85CA001AF5BF8046B9AE80700D7
:101F30004E4487E807000C223946304606F0E7FA9F
:101F4000044600B9A6B908F10108B8F1050FEBD1B4
:101F50006FF00D04204605B0BDE8F04F71467246A3
:101F60007346F4468EF3008C74476FF01504F1E766
:101F70003C223146284606F0F1FAEBE7308D0000AE
:101F8000C08B0000014803F0ABBB00BF448D0000D4
:101F900008B5B0B14368042B0DD100220368D3E823
:101FA000EF1F012903D1C3E8E02F0028F7D107482C
:101FB00008BF104608BD3BB1006801F0CFFF00200C
:101FC000F8E76FF4E040F5E70148F3E7E98FFFFF3A
:101FD000EA8FFFFF10B5044618B90D4B0D485B683A
:101FE0009847616808290DD031F004030AD011F038
:101FF000020108D02146084801F066FD0023236055
:102000000023636010BD1422206806F0B2FAF7E7DF
:1020100060000020009400008804002010B50446F1
:1020200018B9164B16485B6898476368042B23D091
:10203000082B21D0CBB92368BBB94FF0FF324FF04A
:10204000FF3321460F4801F0E5FC08B923681BB9AE
:102050000A4B0D485B68984714220021206806F05F
:1020600088FA636843F002036360206806F0CFFBE0
:10207000636843F00103636010BD00BF600000208F
:1020800000940000880400202694000008B5E8B100
:102090004368042B0CD101220368D3E8EF1F002909
:1020A00003D1C3E8E02F0028F7D10BD1002008BDF1
:1020B00053B100684FF0FF324FF0FF3301F076FE6E
:1020C0000028F3D00348F2E70348F0E76FF4E0405C
:1020D000EDE700BFE98FFFFFEA8FFFFF08B5064974
:1020E00040231422054806F067FBBDE80840044978
:1020F000044803F0A9BB00BFA80400208804002006
:102100005C8D00004C8D0000094A0A4993680968FB
:102110005867996708494B6843F080534B60002328
:1021200083F31188BFF36F8F9368986F704700BF78
:10213000D0090020E48D000000ED00E013498A681A
:102140004FF030001044EFF3098C80E8F01F20209E
:1021500080F31188BFF36F8F0D4F4FF000664A6A0E
:102160008A603E60506F0023536780F3118802F14C
:10217000300090E8F01F8CF3098802F1000004B5EC
:1021800006F08CF9BDE8044070470000D00900203B
:1021900004ED00E01EF0040F0CBFEFF30880EFF336
:1021A0000980816911F8021C0229FFD001B506F0EF
:1021B00079F901BD43B2002B08DB012200F01F00BA
:1021C00002FA00F0024A5B0942F82300704700BFA0
:1021D00000E100E0054B420953F82220012300F002
:1021E0001F0003FA00F01040704700BF00E100E05C
:1021F00038B54C1C072C054608D90D490D48582206
:1022000005F0C6FF58210A4806F08EF86BB2002B85
:10221000ACBF03F16043084B4FEA4414E4B2ABBFD8
:1022200003F5614305F00F0583F800435C5538BDA5
:1022300053940000A68F000014ED00E042F8203C0B
:10224000009B0B4942F81C3C019B21F0010142F824
:10225000183C029B42F8081C42F8143C4FF0807373
:1022600042F8043C0023203A02654367704700BFF0
:1022700053820000084B9860436E83F30B8810462E
:1022800081F30988002163B681F31188BFF36F8F52
:102290000022002305F0DDFFD009002001491022B3
:1022A0000A60704710ED00E072B6404080F311887C
:1022B000BFF36F8FBFF34F8F30BF62B6BFF36F8F27
:1022C000704700BF72B6494081F3118820BF80F388
:1022D000118862B6704700BF37B505460C46C9B1D4
:1022E0008B6810480093D1E90023452106F02FF8B0
:1022F000636945210093D4E903230B4806F027F8CE
:102300004521E269094806F022F84521A2690848FA
:1023100006F01DF82146284603B0BDE8304001F024
:102320002FBA00BF89940000BD940000F194000012
:102330000595000030BFFFF7FDBF00BF0B4A08B591
:102340000B4B22F07F029A60BFF34F8FBFF36F8F6A
:10235000D3F8882022F47002C3F8882001F06CFAC8
:1023600002F09CFE00F018FB01F08AFA0000000069
:1023700000ED00E001B572B60B4A106A00281EBFDE
:102380000021116206F03CFA62B6EFF30580A0F17D
:1023900010004FEAC0000549014409C99847BDE84B
:1023A0000140034908470000D00900204C89000083
:1023B000ED280000002080F31488BFF36F8F002009
:1023C00080F30A8880F30B8806F052FA00200E4949
:1023D0000860BFF34F8F0D4880F3088800F0B6FA0D
:1023E000202080F311880A484FF40061401880F3E0
:1023F0000988EFF314800221084380F31488BFF3A7
:102400006F8FFFF79BFF000094ED00E0E0240020B9
:1024100020260020EFF30880EFF3098101B5724612
:1024200000F070F901BD00BF70B52B4C06460D469B
:102430002A48452105F08BFFA26AD00603D5452125
:10244000274805F084FFA36A190703D545212548CD
:1024500005F07DFF204CA36A9A0710D5452122483C
:1024600005F075FF626BA36A1B0608D545211F485E
:1024700005F06DFF1EB1A36A23F08003A362164C22
:10248000A26AD60703D54521194805F060FFA36A63
:10249000980603D54521174805F059FF0E4B9A6A57
:1024A000D10602D49A6A92070DD59B6ADB060AD53B
:1024B0001149124840F24F1205F06AFE40F24F11E6
:1024C0000D4805F031FF0020034A936A43F0FF03F3
:1024D0009362287070BD00BF00ED00E038950000E9
:1024E000539500008B950000A3950000C095000057
:1024F000DB950000FF95000033960000A68F0000DA
:1025000070B5234C06460D462248452105F01FFFB5
:10251000A26AD10403D545211F4805F018FFA36A1C
:102520001A0503D545211D4805F011FF184CA36A73
:102530009B0510D51A48452105F009FFA26BA36A37
:10254000180408D54521174805F001FF1EB1A36AFC
:1025500023F40043A3620E4CA36A590503D5452119
:10256000114805F0F4FEA36ADA050BD545210F48A2
:1025700005F0EDFE0020064A936A43F47F43936220
:10258000287070BDA36A9B04F4D545210848EFE785
:1025900000ED00E06D960000889600008B9500002D
:1025A0009E960000BC960000D6960000F6960000AD
:1025B000FF95000038B5214C4521214805F0C7FEA4
:1025C000A26A950103D545211E4805F0C0FEA36A05
:1025D000DC0103D545211C4805F0B9FE174DAC6A56
:1025E00014F4801404D04521184805F0B0FE0224EC
:1025F000AB6A180303D54521154805F0A8FE0F4D19
:10260000AA6A510303D54521124805F0A0FEAB6A22
:102610009A0303D54521104805F099FE074DAB6A92
:10262000DB0303D545210D4805F091FEAB6A20463A
:102630006FEA03436FEA1343AB6238BD00ED00E07D
:10264000139700003097000048970000679700003C
:1026500096970000B9970000E397000002980000E9
:1026600010B51E4C1E48452105F071FEA269636934
:10267000580603D545211B4805F069FE6369D90753
:1026800008D54521184805F062FE636943F0FF0351
:10269000636110BD63699A0702D545211348F2E7CB
:1026A00063695B0702D545211148ECE763691807A8
:1026B00002D545210F48E6E76369D90602D54521D1
:1026C0000D48E0E763699A0602D545210B48DAE731
:1026D00063691B06D9D545210948D4E7D0ED00E050
:1026E0003298000050980000659800008098000023
:1026F000A3980000C3980000E5980000FF98000030
:102700001E9900002DE9F041624B0D465C680026E1
:102710008AB0C4F3080786F31188BFF36F8F02F005
:102720007F43B3F17F4F1ED112F0010339D012F075
:10273000400302F0080840F0A680520754BF054647
:102740001E462A68544B58BF01261344012B98BFDC
:102750002A6C4521514805F0FAFDB8F1000F1DD053
:10276000EFF389855DB940F2E1324D494D4805F0FE
:102770000FFD40F2E1314A4805F0D6FD0025002367
:10278000FA1E98468DF807301346092B69D8DFE802
:1027900003F00A595D38616868686865EFF38885F9
:1027A000E0E71E46DFE745213F4805F0D0FD394B05
:1027B0008DF80780DC6A14F0020404D045213B4800
:1027C00005F0C5FD48E0DB6A5B0022D545213848AD
:1027D00005F0BDFD374B1B7833B101200DF107012A
:1027E000FFF722FE044614E0334B1B782BB1012087
:1027F0000DF10701FFF784FEF4E7304B1B889BB215
:1028000013B1FFF7D7FEEDE72D4B5B690BB1FFF777
:1028100027FF9DF8073093B92022294602A805F02A
:102820009DFE099B56B3C3F3080222B96FEA5323F6
:102830006FEA43230993204602A9FFF74DFD0AB032
:10284000BDE8F08100200DF10701C9E700200DF17E
:102850000701CFE7FFF704FF0024DAE74521194815
:10286000AEE7194914F4F87F184A194808BF0A4618
:10287000A7F11003452105F06AFDEDE723F4FF738E
:1028800023F00103D6E7B8F1000F7FF46BAF0546E4
:10289000012667E700ED00E0A6ED05016499000060
:1028A00033960000A68F000088990000A4990000CC
:1028B000CA99000028ED00E029ED00E02AED00E0D3
:1028C000D0ED00E0EE990000369900004B99000031
:1028D000179A0000044B5A6942F010025A615A6973
:1028E00042F480625A61704700ED00E0044B996841
:1028F000586A884203D003494FF080520A607047FB
:10290000D009002004ED00E0BFF34F8F0549064BCE
:10291000CA6802F4E0621343CB60BFF34F8F00BF7D
:10292000FDE700BF00ED00E00400FA0500231846B3
:10293000054A1168C1F307218B4200D170479360AB
:1029400010610133F8E700BF90ED00E010B572B6FA
:10295000002484F31388FFF7E9FF0E4A234611464B
:102960004FF0FF3403F120000133102B42F82040D8
:10297000F8D100234FF0FF3003F160020133102B38
:1029800041F82200F8D162B6BFF34F8FBFF36F8FCB
:1029900010BD00BF00E100E0002320210348C21861
:1029A0000133412B82F80013F9D1704700E100E0B8
:1029B000064B9B68834207D1EFF3058323B1044A9A
:1029C000536843F08053536002F0D4BAD00900201A
:1029D00000ED00E082680C4B9A60036883F38888FE
:1029E000436883F38988027B02F00101EFF394834B
:1029F00023F00303920748BF43F0020309B143F0F9
:102A0000010383F39488704700ED02E0084AD3681D
:102A100048B123F400531B041B0C43F0BF6343F481
:102A20000033D36070479BB243F40053F5E700BF17
:102A300000ED00E0084AD36840B19BB243F4804304
:102A400043F0BF6343F40033D360704723F4804303
:102A50001B041B0CF4E700BF00ED00E0084AD3683C
:102A600040B19BB243F0080343F0BF6343F400332B
:102A7000D360704723F008031B041B0CF4E700BF6E
:102A800000ED00E0034AD2F88C3043F44063C2F812
:102A90008C30704700ED00E0084B1A6818B142F026
:102AA00001021A60704722F001021A601A6811B11F
:102AB00042F00202F5E722F00202F2E7D0ED00E078
:102AC0001FB5094C094A23460121094800F01AF9AB
:102AD00000230393074B0121E41A01A801930294F8
:102AE00000F02CF904B010BD00000120000000200F
:102AF000708D00002001002010B50B680C7A23F0C7
:102B00001F0204F01F031A43CB68640923F01F035C
:102B1000044943EA440343F001038860CA600B613F
:102B200010BD00BF90ED00E030B54B680C6885B07B
:102B30000A898D7A0094013B24F01F04234402F09B
:102B40001F0242EA451223F01F030F2804468DF8A6
:102B50000820039309D902464521064805F0F7FBF2
:102B60006FF01504204605B030BD6946FFF7C4FF7D
:102B7000F8E700BF339A00002DE9F04F894614466C
:102B800006464FF00008524D85B0C84523DA7768F5
:102B9000002F42D01F2F17D9FB0615D1D6F800A061
:102BA0001AF01F0F10D1504605F087FC834607EB43
:102BB0000A00013805F081FC834510D06FF0150B39
:102BC0005A464521434802E042464521424805F025
:102BD000BEFB6FF01504204605B0BDE8F08F1BF179
:102BE000160FEDD0631E5B45EADBC5F808B0E96857
:102BF000C5F808B02F6921F01F01D6E900321A4448
:102C0000994247F01F0702F1FF3A1CD1574508D1FE
:102C100031465FFA8BF0FFF787FF08F101080C36A9
:102C2000B3E73146C5F808B0EB6822F01F0203F0A5
:102C30001F031A43EA60E0B2FFF776FF10F1160FA8
:102C4000C7D0441CE9E7013B5745E0B223F01F031E
:102C5000C5F808B006D12A69314602F01F021343B5
:102C60002B61E9E7296901F01F010B432B61314614
:102C7000FFF75AFF10F1160FABD0C5F808B0EA689D
:102C80009DF80830013F62F304038DF808302B698A
:102C90009DF808205B0863F347128DF80820D6E9F9
:102CA00000321344009323F01F033B44441CA3EB66
:102CB0000A0AE0B22AF01F030F28039303D9024641
:102CC0004521064883E76946FFF716FFB9E700BFCD
:102CD00090ED00E0869A00005E9A0000339A0000B2
:102CE0000522034B5A60BFF34F8FBFF36F8F7047BE
:102CF00090ED00E0BFF35F8F0022014B5A607047F8
:102D000090ED00E010B50A4C2278FFF735FF2070F7
:102D100016300CD10749084840F2051205F038FA80
:102D2000BDE8104040F20511024805F0FDBA10BDA3
:102D300020130020AE9A0000A68F00002DE9F74F67
:102D40002D4D8A4606464FF00008AB462B4FD04526
:102D500002DB03B0BDE8F08FD6F80490B9F1000FA4
:102D600044D031680846019105F0A7FB019904465B
:102D700009EB0100013805F0A0FB84424FF014027A
:102D80001F4B13D06FF0150302FB08F84BF8083007
:102D900040F215121B491C4805F0FAF940F21511D2
:102DA000184803B0BDE8F04F05F0BEBA14F1160F95
:102DB0002C60EDD01978A142EADD02FB08B0BC60BE
:102DC000BC60FC6800F10801007B64F3040008713A
:102DD00038690C79400860F347140C71F96821F0E8
:102DE0001F016960396921F01F01296108F101089B
:102DF00014350C36ABE700BFA809002090ED00E0C9
:102E000020130020AE9A0000A68F000070B51B4D65
:102E10002E68102E0DD94FF49E721949194805F0ED
:102E2000B7F917484FF49E7105F07EFA4FF0FF3066
:102E300070BDFFF75FFF0020134C144A22638642E7
:102E400015D1134B1E70FFF74BFF2368C3F3072305
:102E5000102B0AD00A490B484FF4D07205F098F9AC
:102E60004FF4D071064805F05FFA0020E0E769688A
:102E700001EB0011FFF740FE0130E0E77C8D000020
:102E8000AE9A0000A68F000090ED00E0AAFF44007B
:102E900020130020014B1860704700BF280000205D
:102EA000F0B54B79012B2AD0032B25D110268B7935
:102EB000032B21D1CC792CB1012C1DD143685B6847
:102EC0009B0719D00A7912B1022A15D10E220B687C
:102ED0004568B3F5164F2D6865D02DD8B3F5165F4C
:102EE00064D016D8B3F5966F62D00AD8B3F5967F42
:102EF00061D0B3F5167F61D06FF0850052E00026F7
:102F0000D5E7B3F5166F5CD0B3F5965FF4D1374BC8
:102F10003CE0B3F5E14F57D007D8B3F5615F55D02A
:102F2000B3F5964FE8D1324B30E047F61227BB425B
:102F3000E2D14FF4000329E0B3F5613F48D013D844
:102F4000B3F5963F47D009D84DF6C027BB4244D0D1
:102F5000B3F5614FD0D14FF46B0317E0B3F5E13F08
:102F6000CAD14FF0EB7311E0B3F5612F38D008D818
:102F7000204FBB4237D0B3F5E12FBDD14FF0E8630E
:102F800004E01D4FBB42B7D14FF08053C5F8243544
:102F9000036934432243043303C9C5F86C2583E82D
:102FA00003000020F0BD4FF41D03EFE7134BEDE7E6
:102FB0004FF49E23EAE74FF4A033E7E74FF41C33C6
:102FC000E4E74FF41D23E1E70D4BDFE70D4BDDE7B1
:102FD0004FF06C73DAE70C4BD8E74FF46503D5E795
:102FE0004FF07063D2E74FF08063CFE700B013007B
:102FF00000A04E0090D0030040420F000050270078
:1030000000C0750000F03A0000903A01036810B566
:103010005A090CBF4FF0FF32002203F01F0322FABF
:1030200003F3DB0704460AD40E490F484FF4057238
:1030300005F0AEF84FF405710A4805F075F92368FC
:1030400003F01F025B0922600AD00649064840F2DD
:10305000192205F09DF840F21921024805F064F9A3
:10306000024810BDF49A0000A68F0000002584508D
:10307000F8B505460F46066905F0BAFB10B92C4BAA
:103080001B7883B94FF02003EFF3118483F3118889
:10309000BFF36F8F284605F0C1FA28BB84F311886F
:1030A000BFF36F8FEEE76424284605F0B7FA70B9D6
:1030B000012005F074FB013CF6D10021212001F034
:1030C00023FFF0E784F31188BFF36F8FF5E74FF02C
:1030D0002003EFF3118483F31188BFF36F8F284629
:1030E00005F09CFA0028EDD0012206F8107F6968EF
:1030F0000B68C3F84465C3F848250022C3F82021B3
:10310000D3F82001C3F85821D3F858214A68D206D1
:1031100041BF0822C3F800254FF48002C3F80423FE
:1031200001229A6084F31188BFF36F8FF8BD00BF4E
:103130002113002030B585B06C460546084B0FCBF7
:1031400084E80F00002201210820FFF751F8082031
:10315000FFF730F82146284605F083FA05B030BD68
:10316000CC8B000030B585B06C460546084B0FCBC4
:1031700084E80F00002201210920FFF739F8092017
:10318000FFF718F82146284605F06BFA05B030BD68
:10319000DC8B0000F7B50F46164640B918491948B0
:1031A000242204F0F5FF2421154805F0BDF847B9A5
:1031B00013491448252204F0EBFF2521104805F09F
:1031C000B3F84FF4806500246FF01500A64201D8D3
:1031D00003B0F0BD331BB3F5806F38BF1D46002030
:1031E00001AB2A46391902F0B7FA019BAB4203D171
:1031F0000028EDD12C44E9E76FF01500E8E700BFA7
:103200003E9B0000A68F00000348452108B505F04D
:103210009EF80020FFF778FB799B00002DE9F04332
:103220000025214C214E54F8048CDFF8889085B09D
:10323000A84503D8002005B0BDE8F083636A96E88E
:1032400007001F6801AB83E807000C2219463846C7
:1032500005F05DF990B98FB1636A21691B681A693D
:1032600091420BD19A69A169914207D8E1699142D3
:1032700004D962695B6932EA03030AD0276A67B13D
:103280000B4804F085FF404080F311884FF00400A4
:1032900002DFE36801351C44CAE7484604F078FFC2
:1032A000636A1F60F5E700BF3C020000EC8B000082
:1032B0009B9B0000C49B0000054B1868043B1B68E7
:1032C000092B03D1431E58425841704700207047D4
:1032D0003401FF004A4A08B5136843F00203136043
:1032E000484B1B68092B01BF4FF050230022C3F845
:1032F0001421C3F81821FFF7DFFF30B10123424A40
:103300001360A2F63822C2F878353E4B1B68092BB1
:1033100007D13E4B1B68012B1EBF01223C4BC3F85B
:103320007825FFF7C9FF10B10E223A4B1A60354BD2
:103330001B68092B04D10022374B1A6001225A6006
:103340000022D30003F57F03D3F80013013108D026
:10335000D3F800130132D3F80433B2F5807F0B6049
:10336000EFD12E4BDA69D1073BD52D4B1946D3F857
:103370000024012AFBD1C3F80425D1F80034012B25
:10338000FBD1264BDA69D20708D5DA69244922F045
:103390000102DA61D1F80024012AFBD11A6A013254
:1033A0000AD11A6A22F0FF0242F020021A621C4A75
:1033B000D2F80034012BFBD10022194BC3F80425AD
:1033C000D3F80024012AFBD1BFF34F8F1549164BC8
:1033D000CA6802F4E0621343CB60BFF34F8F00BFB3
:1033E000FDE71B6A0133C0D00E4AD2F88C3043F49B
:1033F0004063C2F88C300D4B0D4A1A6008BD00BF07
:10340000D0ED00E03001FF00384A00503401FF00E9
:1034100000400050E4AE03500C4700500080FF0015
:103420000090035000ED00E00400FA055400002075
:103430000090D00308B570B101281BD04FF44F7233
:103440001349144804F0A4FE11484FF44F7104F0DE
:103450006BFF00200DE031B14FF05023D3F818344A
:1034600003F003030B704FF05023D3F81804C0F39C
:10347000004008BD31B14FF05023D3F80C3403F0B5
:1034800001030B704FF05023D3F80C04EFE700BF9B
:10349000F79B0000A68F000010B5044640B909490B
:1034A0000948B52204F074FEB521064804F03CFF3B
:1034B000064B1A7922B9012205481C601A7110BD09
:1034C0000448FCE72B9C0000A68F0000C8090020E0
:1034D0000000AD0B0C00AD0B08B50B4B1B7943B9CD
:1034E0000A490B48CE2204F053FECE21074804F0CF
:1034F0001BFF0520FEF76EFE20B9BDE80840052041
:10350000FEF758BE08BD00BFC80900202B9C000074
:10351000A68F0000224B13B51B79044653B92149ED
:1035200021484FF4857204F033FE4FF485711D4835
:1035300004F0FAFE6CB1012C28D04FF49E721949A8
:10354000194804F025FE4FF49E71164804F0ECFE75
:1035500018E020460DF10701FFF76CFF4FF05023F4
:1035600090B19DF80720022A0ED1C3F81825002239
:103570000E4B1A601B6802224FF05023C3F804233D
:1035800001229A6002B010BD0122EEE70022084B32
:103590001A601B684FF05023C3F804431C60F1E726
:1035A000C80900202B9C0000A68F00000451005089
:1035B000005100502D4B13B51B79044653B92C49CB
:1035C0002C4840F2431204F0E3FD40F24311284836
:1035D00004F0AAFE74B1012C27D02549254840F2F9
:1035E0005F1204F0D5FD40F25F11214804F09CFE0B
:1035F00002B010BD4FF050230222C3F8082301226D
:10360000C3F8044142F2107403F582731B681A4B2D
:103610001A6000210846FFF70DFF0028E8D00120BE
:1036200005F0BDF8013CF4D1E2E74FF05023002251
:10363000C3F80843C3F8002103F580731B680F4BE0
:103640001C608DF8074042F2107401200DF1070153
:10365000FFF7F0FE0028CBD09DF807000128C7D166
:1036600005F09DF8013CF0D1C2E700BFC809002079
:103670002B9C0000A68F00000C50005004500050FE
:10368000164B07B51A6852B1002018601B6801225A
:103690004FF05023C3F80823114B1B689847114B78
:1036A0001A688AB100200DF1070118601B68FFF746
:1036B000C1FE9DF807104FF0502301294FF0020280
:1036C00005D1C3F81825996003B05DF804FBC3F871
:1036D0000823034B01201B689847F5E70051005071
:1036E000C8090020045100500E4B70B553F820401B
:1036F000013053F82060A64200D870BDD4E90035EF
:103700002846984765B1EB6830B10028B8BF404201
:10371000FF28A8BFFF2018705A7842F001025A70A3
:103720000834E8E7D08D000070B5054610B90024D4
:10373000204670BD0378002BF9D00F4A0F4C164677
:10374000944208D10D4CB442F1D0204605F02AF83D
:1037500050B91834F7E7204605F024F810B1236873
:10376000AB42E5D01834EBE72846216804F0C3FEED
:103770000028EED1DCE700BF4C890000D4880000AF
:10378000F7B504460E464FF02003EFF3118783F39D
:103790001188BFF36F8F01F0E7FB0022042C98BF64
:1037A0001D4B054694BF53F824301C4B0092452115
:1037B00022461B4804F0CBFD3EB1F369C3F3080376
:1037C0001BB14521174804F0C2FD35B1284605F06C
:1037D00015F8034608B1027802B9134B2A46452171
:1037E000124804F0B4FD31462046FFF70DFD042CCD
:1037F00008D10F490F488F2204F0CAFC8F210C48D2
:1038000004F092FD87F31188BFF36F8F284603B051
:10381000BDE8F040FFF7CCB8E88D0000689C0000E0
:103820007E9C0000AB9C0000769C0000D19C0000B8
:10383000EE9C0000A68F00000248034A0021121AE5
:1038400004F097BE20010020E0140020012208B5FA
:10385000094B02201A70FFF747FF01F0E5FE032035
:10386000FFF742FF00F0D6F904F078FC034A137B1F
:1038700023F00103137308BD21130020A0010020D1
:103880002DE980483F4BA7B003F5006787F3088810
:1038900083F30A880024E0233B4D4FF0010B85F8A9
:1038A0002230EC772C766C76AC76EC766B6A374E01
:1038B00043F4E0236B626B6ADFF8E8A043F4002373
:1038C0006B62AC63EB68DFF8E0809BB243F0BF63F0
:1038D00043F40833EB60FEF7FDFFFEF7DFFC4FF02B
:1038E000FF33AB62EB62FFF791FAFFF7E9F840F2C2
:1038F0000113274DADF8243006ABAB60CDE91F4472
:1039000004F04FFF2046FFF7EFFE0120FFF7ECFE2B
:1039100001F0D8F91F4B6E624FF480521E49059397
:1039200030465346CDE9034BCDE90144009400F005
:103930001DF9737B814623F004033046737301F055
:1039400039F80F234FF4A072CDE902431349144B09
:103950004046CDE904B4CDE9005400F007F998F8E9
:103960000D30524623F0040388F80D3005F118039A
:1039700049463046C5E90633C5F80C802C756F60A2
:10398000FEF778FC2026002000ED00E0A0010020DA
:10399000D00900205A9D0000E0140020E0240020FF
:1039A0005D3D00004D380000200100202DE9F04170
:1039B000144D154CA846154EAC4208D93146144852
:1039C0003C2204F0E5FB3C21304604F0ADFC4445CC
:1039D00002D30020BDE8F081D4E9041242EA0103D9
:1039E00013F003030BD1E068A361834201D12034BB
:1039F000E2E7A76901331760A2610A44F5E76FF0B7
:103A00001500E7E7D0000020D0000020629D0000F4
:103A1000A68F00002DE9F74304460D4690469946CF
:103A200000F108064FF02003EFF3118783F31188AC
:103A3000BFF36F8F304600F06DF940B91F49204841
:103A4000812204F0A5FB81211C4804F06DFC304666
:103A500000F07CF9A369C3B12B601B68A361E36923
:103A60000133E3610024304600F062F940B91349A4
:103A70001348AC2204F08CFBAC21104804F054FC39
:103A800087F31188BFF36F8F13E058EA090203D15F
:103A90006FF00B042B60E6E7224639463046CDE94D
:103AA000008900F0A1FD044618B9064B9B685B69CC
:103AB0002B60204603B0BDE8F08300BFE08F00001C
:103AC000A68F0000D00900202DE9F04104460D46E4
:103AD00000F108064FF02003EFF3118783F31188FC
:103AE000BFF36F8F304600F015F940B91D491E48ED
:103AF000812204F04DFB81211A4804F015FC304668
:103B000000F024F9D4F81880B8F1000F0FD1204646
:103B100001F09AF858B12A68C0F87880426100F044
:103B200049FF39463046BDE8F04100F0BDBB2B6887
:103B3000A26930461A602B68A361E369013BE36127
:103B400000F0F6F840B907490748AC2204F020FB22
:103B5000AC21044804F0E8FB87F31188BFF36F8FB2
:103B6000BDE8F081E08F0000A68F00002DE9F04352
:103B700085B0DDF83C900446B9F10F0F0F461546AD
:103B800098462ED11F4B98452FD104F15803C4E914
:103B90001633109B00262373042363730E9BE81DCA
:103BA00002930D9B20F0070001930C9B3D18C4E984
:103BB000197000932A46434639462046C4E90666F2
:103BC000A66084F80E90E673E666FEF737FB0E4BB0
:103BD00066659B6803B11B6F2846236705B0BDE887
:103BE000F08309F110031E2BCFD940F205220749BB
:103BF000074804F0CDFA40F20521044804F094FB94
:103C0000C3E700BF5D3D0000D0090020879D000094
:103C1000A68F00002DE9F047394F3A4D3E46DFF8B8
:103C2000EC8086B0BD420AD94146374840F2D522E1
:103C300004F0AEFA40F2D521404604F075FBB542DF
:103C400005F130041DD300F065FB40F2E7384FF07A
:103C500000092C4C2D4DDFF8B0A0B4420AD92946FA
:103C600050464FF43D7204F093FA4FF43D712846EC
:103C700004F05AFBB44221D306B0BDE8F04700F08F
:103C800031BD54F8043C059354F8103C049354F8A7
:103C9000143C039354F8183C029354F81C3C0193D1
:103CA00054F8203C009354E90A2354E90C01FFF72F
:103CB0005DFF54F8303C5D652546B3E7636A5A1CE6
:103CC0000FD04FF400424046494623EAE373C2FB5B
:103CD0000301494508BF4045276804D1384600F034
:103CE0009FFE3034B9E74FF47A720023FCF7A6FA4E
:103CF00002460B4607F11800054901F039FAF0E7D2
:103D0000D0000020D0000020A68F0000879D00007A
:103D1000A54A0000006838B1044B00F003001B7D89
:103D2000C01A18BF0120704701207047D009002039
:103D3000054903468A68087D1968024300209142BC
:103D400004BF186001207047D0090020024A117D8D
:103D500093680B4303607047D0090020104C08B5EE
:103D6000A26892F90E20002A08DA0E490E4846226F
:103D700004F00EFA46210B4804F0D6FA4FF0200268
:103D8000EFF3118382F31188BFF36F8F01F0E6FA2E
:103D90002062FDF701FB0028F0D1FEF785FAEDE780
:103DA000D0090020AA9D0000A68F00002DE9F34154
:103DB000044616461F46EFF3058343B16249634844
:103DC000652204F0E5F965215F4804F0ADFA4FF093
:103DD0002003EFF3118883F31188BFF36F8F5C48E2
:103DE000FFF798FF40B95B495848812204F0D0F9A9
:103DF0008121584804F098FA5548FFF7A7FFE36877
:103E0000554AD3B1A0689168884233D056EA070377
:103E100032D14F48FFF78CFF40B94E494B48AC2296
:103E200004F0B6F9AC214B4804F07EFA88F311880F
:103E3000BFF36F8F6FF00F0019E0916891F90E10CA
:103E40000133E360936842482161A360FFF770FF8C
:103E500040B940493D48AC2204F09AF9AC213D48B4
:103E600004F062FA88F31188BFF36F8F002002B06C
:103E7000BDE8F0812169E3E791F90E1090F90E3069
:103E80006FF07E029942A8BF19469142B8BF114611
:103E90008B423FDD00F04EFE054622464146CDE90D
:103EA00000672B4800F0A0FB0028E0D04FF0200373
:103EB000EFF3118683F31188BFF36F8F2448FFF768
:103EC00029FF40B923492148812204F061F9812169
:103ED000204804F029FA1E48FFF738FF23682169BB
:103EE0009C420AD04BB193F90E309942A8BF1946B3
:103EF0006FF07E039942B8BF1946A06890F90E3062
:103F0000994209D16DB13146114800F0CDF96FF0F9
:103F10000A00ACE70025C0E700F00CFE0028F2D153
:103F2000F0E70B48FFF704FF40B90A490748AC2205
:103F300004F02EF9AC21074804F0F6F986F3118855
:103F4000BFF36F8FE3E700BFCB9D0000A68F00009B
:103F5000000A0020E08F0000D009002038B5044698
:103F6000EFF3058343B145494548C72204F010F9F2
:103F7000C721424804F0D8F9A368002B78D0414DFE
:103F8000AA68934277D1E36843B93C493C48DF22B1
:103F900004F0FEF8DF21394804F0C6F9EFF3058399
:103FA00043B139493648FD2204F0F2F8FD21364884
:103FB00004F0BAF9AB68DB7B012B08D132493048F9
:103FC000FE2204F0E5F8FE212F4804F0ADF9AA68BE
:103FD000D37B013BD373E368012B05D9013BE3603D
:103FE00000F080FB002038BD4FF02003EFF3118577
:103FF00083F31188BFF36F8F2448FFF78BFE40B91E
:1040000023491F48812204F0C3F88121204804F08D
:104010008BF91E48FFF79AFEA068216990F90E30CF
:10402000994201D000F086FD204600F00DFEA06010
:1040300058B190F90E2022610022826700F0BAFC8C
:104040002946124800F030F9CAE7E0600F48FFF750
:104050006FFE40B90E490A48AC2204F099F8AC2131
:104060000B4804F061F985F31188BFF36F8FB7E750
:104070006FF01500B7E74FF0FF30B4E7CB9D0000BD
:10408000A68F0000D0090020ED9D0000000A00204E
:10409000E08F000038B504464FF02003EFF31185A0
:1040A00083F31188BFF36F8F1248FFF733FE40B9D7
:1040B00011491248812204F06BF881210E4804F066
:1040C00033F90C48FFF742FE204600F0BDFD48B131
:1040D0000022826700F06EFC2946BDE838400548A2
:1040E00000F0E2B8D4E902329A4218BF0133A3606B
:1040F000F2E700BF040A0020E08F0000A68F000056
:10410000F7B5044616461F46EFF305835BB156EA42
:10411000070308D02B492C48792204F039F879217B
:10412000284804F001F94FF02003EFF3118583F3E1
:104130001188BFF36F8F2548FFF7ECFD40B9244984
:104140002148812204F024F88121214804F0ECF870
:104150001E48FFF7FBFDA368ABB1013B1B48A36002
:10416000FFF7E6FD40B91A491748AC2204F010F8F1
:10417000AC21174804F0D8F885F31188BFF36F8F8E
:10418000002003B0F0BD56EA070313D10F48FFF734
:10419000CFFD40B90E490C48AC2203F0F9FFAC2129
:1041A0000B4804F0C1F885F31188BFF36F8F6FF0EF
:1041B0000F00E6E722462946CDE90067034800F0F4
:1041C00013FADEE7189E0000A68F0000040A002004
:1041D000E08F000010B5084C23685BB1FDF758FC78
:1041E00003462068054A03440021BDE810401361DE
:1041F00001F0EAB810BD00BF140A0020D009002069
:10420000F8B504460D464FF02003EFF3118683F313
:104210001188BFF36F8F1E48FFF77CFD40B91D4921
:104220001D48812203F0B4FF81211A4804F07CF874
:104230001748FFF78BFD4FF40047002240F2E730AC
:104240000021164BE7FB04011A6100234FF47A7238
:10425000FBF7F4FF002C124B16DC1860114B1D60AD
:10426000FFF7B8FF0A48FFF763FD40B909490A485C
:10427000AC2203F08DFFAC21064804F055F886F31C
:104280001188BFF36F8FF8BD0228B8BF0220E4E7A2
:104290000C0A0020E08F0000A68F0000D00900204B
:1042A000140A0020100A002010B503460C46C1B9BC
:1042B000EFF30582AAB9144A516A9268914210D06C
:1042C000FFF736FD40B911491148C32203F060FFE2
:1042D000C3210E4804F028F8BDE810400020FDF787
:1042E00013BF1846FFF724FD40B908490848AC221F
:1042F00003F04EFFAC21054804F016F884F3118852
:10430000BFF36F8F10BD00BFD0090020E08F000009
:10431000A68F000038B54FF02003EFF3118583F32B
:104320001188BFF36F8F2048FFF7F4FC40B91F4995
:104330001F48812203F02CFF81211C4803F0F4FF69
:104340001948FFF703FDEFF3058343B119491848F6
:10435000FD2203F01DFFFD21164803F0E5FF164C7A
:10436000A268D27B012A08D112491148FE2203F02B
:104370000FFFFE210F4803F0D7FFA268D37B013B5C
:10438000D3730948FFF7D4FC40B908490848AC2268
:1043900003F0FEFEAC21054803F0C6FF85F311884B
:1043A000BFF36F8F38BD00BF0C0A0020E08F000004
:1043B000A68F0000ED9D0000D00900200B4B10B52A
:1043C00099420C460AD10A490A4840F2B53203F034
:1043D000DFFE40F2B531064803F0A6FFD4E9003213
:1043E00013605A600023C4E9003310BD200100208F
:1043F000389E0000A68F0000836810B5044653B9AC
:104400000A490B4840F2422203F0C2FE40F2422128
:10441000064803F089FF2146A068FFF7CFFF637BC2
:1044200023F0020363730023A36010BD389E0000D5
:10443000A68F000038B50246124804F005FA124D66
:10444000044600B9EC68AAB9AB6843B90F491048F3
:10445000812203F09DFE81210C4803F065FFAB68CB
:104460005A7BD20606D1A26922B9DA897F2A01D9FC
:104470006B6238BDAB68A34201D0FFF7ABFE6C6244
:10448000F7E700BFF8090020D0090020389E00009F
:10449000A68F000010B590F90D200446002A437B3A
:1044A00006DA03F07F03014643730648FFF786FFF1
:1044B000054B9868031B58425841BDE81040FFF770
:1044C000B9BF00BFF8090020D009002038B5044664
:1044D0000D46FFF7DFFF637B43F00203637325B3F1
:1044E000184BA5609C420AD11749184840F2A632E1
:1044F00003F04EFE40F2A631134803F015FF2B687F
:104500009D4208BF0023002B38BF00239BB194F9C4
:104510000E1093F90E20914208D0521A002A05DDA0
:104520005A68C4E9003214605C6038BD6A6893421E
:1045300001D01B68EAE76B68C4E900531C606C603B
:10454000F3E700BF20010020389E0000A68F000086
:104550002DE9F04104460D4616461F464FF0200354
:10456000EFF3118883F31188BFF36F8F1A48FFF7B9
:10457000D1FB40B919491A48812203F009FE812173
:10458000164803F0D1FE1448FFF7E0FB2046294609
:10459000FFF79CFF1048FFF7CBFB40B90F491048CD
:1045A000AC2203F0F5FDAC210C4803F0BDFE88F30E
:1045B0001188BFF36F8F7B1C08BFB6F1FF3F08D097
:1045C00032463B4604F118000649BDE8F04100F0D0
:1045D000CFBDBDE8F08100BF0C0A0020E08F0000D5
:1045E000A68F0000A54A000038B505460D4B0C46C5
:1045F00098680D4B11461860DDE90423FFF7A8FF0A
:104600002846FFF795FB40B908490948C32203F043
:10461000BFFDC321054803F087FE2046BDE83840B2
:10462000FDF772BDD0090020080A0020E08F0000CD
:10463000A68F000070B50446183000F053FE4FF00E
:104640002003EFF3118683F31188BFF36F8F2048A7
:10465000FFF760FB40B91F491F48812203F098FD16
:1046600081211C4803F060FE1948FFF76FFB94F9A5
:104670000D20637B002A06DA03F07F0321461748EA
:104680006373FFF79BFE164D637BA86843F010032E
:104690006373031B58425841FFF7CCFE0C48FFF7E9
:1046A00047FB40B90B490C48AC2203F071FDAC212B
:1046B000084803F039FE86F31188BFF36F8FAB68AB
:1046C000A34203D1BDE8704004F0B4B870BD00BF90
:1046D0000C0A0020E08F0000A68F0000F8090020DF
:1046E000D009002038B54FF02003EFF3118583F394
:1046F0001188BFF36F8F2448FFF70CFB40B92349A3
:104700002348812203F044FD8121204803F00CFE60
:10471000204C1D48FFF71AFBA268D27B52B91E49F4
:104720001B484FF4517203F033FD4FF451711A4896
:1047300003F0FAFDEFF3058353B11749144840F233
:10474000453203F025FD40F24531134803F0ECFDFE
:10475000A2680020D37B0133D373FFF76BFE0A48B6
:10476000FFF7E6FA40B909490948AC2203F010FD09
:10477000AC21064803F0D8FD85F31188BFF36F8F95
:10478000BDE8384004F056B80C0A0020E08F000065
:10479000A68F0000D0090020389E000070B590F967
:1047A0000D200446002A437B06DA03F07F0301460E
:1047B00043732048FFF702FE637B63F07F0363735C
:1047C0001D4B9C420AD11D491D4840F2A63203F000
:1047D000DFFC40F2A631194803F0A6FD194A114644
:1047E00051F8283FD56A8B4208BF0023002B38BF01
:1047F0000023CBB194F90E6093F90E0086420FD0DE
:10480000801B00280CDD5968C4E900310C605C6035
:104810009068031B58425841BDE87040FFF70ABE3C
:10482000AB4201D01B68E4E7C4E900152C60D462F8
:10483000EEE700BFF809002020010020389E0000AC
:10484000A68F0000D009002070B504464FF0200369
:10485000EFF3118583F31188BFF36F8F2548FFF7BE
:1048600059FA40B924492548812203F091FC81215D
:10487000214803F059FD1F48FFF768FA204B214AF1
:10488000986811688842194613D1FFF7A3FC1948AC
:10489000FFF74EFA40B918491848AC2203F078FCEB
:1048A000AC21154803F040FD85F31188BFF36F8FED
:1048B00070BD00261660144A1268BAB1C2897F2AF8
:1048C00014D8427BD20611D1104A90F90E601268BA
:1048D00096420BDB0E4A904208D01A69A24202DCD3
:1048E000FFF75CFFD1E7121B1A61D0E700230B61D1
:1048F000CDE700BF0C0A0020E08F0000A68F00006B
:10490000D0090020080A0020140A0020100A002004
:104910002001002070B590F90D200446002A437B49
:104920003FDBDA063DD18569002D3AD163F07F0384
:1049300043731C4B98420AD11B491C4840F2A632D3
:1049400003F026FC40F2A631174803F0EDFC1849AD
:104950000B4653F8280F984218BF0546002D1A46FB
:104960002B4638BF0023CD6AB3B194F90E6093F99A
:104970000E0086420CD0801B002809DD5A68C4E96D
:10498000003214605C600020BDE87040FFF752BD4B
:10499000AB4201D01B68E7E7C4E900252C60CC627C
:1049A000F1E770BD20010020389E0000A68F0000B6
:1049B000D009002038B504464FF02003EFF31185ED
:1049C00083F31188BFF36F8F1248FFF7A3F940B943
:1049D00011491248812203F0DBFB81210E4803F0CC
:1049E000A3FC0C48FFF7B2F92046FFF793FF0948F4
:1049F000FFF79EF940B908490848AC2203F0C8FB0C
:104A0000AC21054803F090FC85F31188BFF36F8F4C
:104A100038BD00BF0C0A0020E08F0000A68F000008
:104A200038B504464FF02003EFF3118583F3118866
:104A3000BFF36F8F1848FFF76DF940B91749184851
:104A4000812203F0A5FB8121144803F06DFC12487C
:104A5000FFF77CF9637B5A0711D40F48FFF768F919
:104A600040B90E490E48AC2203F092FBAC210B4832
:104A700003F05AFC85F31188BFF36F8F38BD23F024
:104A8000040320466373FFF745FF2946BDE838401D
:104A90000148FFF709BC00BF0C0A0020E08F0000AE
:104AA000A68F000070B504464FF02003EFF3118687
:104AB00083F31188BFF36F8F1B48FFF72BF940B9C1
:104AC0001A491B48812203F063FB8121174803F038
:104AD0002BFC1548FFF73AF914F80B3C13F0280F9C
:104AE00010D154F8103CA4F1180513B12846FFF773
:104AF00083FC14F80B3C284623F0140304F80B3C09
:104B0000FFF708FF0848FFF713F940B907490848BD
:104B1000AC2203F03DFBAC21044803F005FC86F316
:104B20001188BFF36F8F70BD0C0A0020E08F00006A
:104B3000A68F0000F8B504460E464FF02003EFF3B1
:104B4000118783F31188BFF36F8F3848FFF7E2F8BE
:104B500040B937493748812203F01AFB8121344894
:104B600003F0E2FB3148FFF7F1F8637B76B2DA0637
:104B700058D1A569002D55D103F07F0363732146F9
:104B80002D48FFF71BFC637BA67363F07F03637301
:104B90002A4B9C420AD12A49264840F2A63203F009
:104BA000F7FA40F2A631264803F0BEFB25490B4632
:104BB00053F8280F984218BF0546002D1A462B4679
:104BC00038BF0023CD6A43B394F90E6093F90E0009
:104BD00086421ED0801B00281BDD5A68C4E90032C3
:104BE00014605C600120FFF725FC01240F48FFF7EB
:104BF0009FF840B90E490F48AC2203F0C9FAAC2126
:104C00000B4803F091FB87F31188BFF36F8F2046A9
:104C1000F8BDAB4201D01B68D5E7C4E900252C6084
:104C2000CC62DFE7A6730024E0E700BF0C0A002097
:104C3000E08F0000A68F0000F8090020200100206E
:104C4000389E0000D009002038B504464FF02003FC
:104C5000EFF3118583F31188BFF36F8F1648FFF7C9
:104C600059F840B915491648812203F091FA81217B
:104C7000124803F059FB1048FFF768F8204603F08C
:104C8000E3FD044628B1FFF7B7FB04F1180000F07C
:104C900029FB0948FFF74CF840B908490848AC22FD
:104CA00003F076FAAC21054803F03EFB85F311884A
:104CB000BFF36F8F204638BD0C0A0020E08F000044
:104CC000A68F00000021044B084603F12802C3E927
:104CD0000A22FFF795BA00BFD0090020F8B5EFF31C
:104CE000058353B13A493B4840F2A14203F050FAE0
:104CF00040F2A141364803F017FB4FF02003EFF3D9
:104D0000118683F31188BFF36F8F3348FFF702F8E2
:104D100040B932492F48812203F03AFA81212F48C5
:104D200003F002FB2E4D2C48FFF710F8A96805F19F
:104D300028004B7B03F07F034B73FFF73FFBAC680E
:104D4000637B63F07F036373264B9C420AD1204947
:104D5000204840F2A63203F01BFA40F2A6311C486C
:104D600003F0E2FAAB6A2048E96A834208BF0023F5
:104D7000002B38BF002333B394F90E7093F90E2043
:104D800097421CD0D21B002A19DD5A68C4E90032B0
:104D900014605C600120FFF74DFB0F48FEF7C8FF71
:104DA00040B90E490B48C32203F0F2F9C3210B4866
:104DB00003F0BAFA3046BDE8F840FDF7A5B98B42DA
:104DC00001D01B68D7E7C4E900010C60EC62E1E7A1
:104DD000389E0000A68F00000C0A0020E08F000023
:104DE000D009002020010020F80900202DE9F04121
:104DF00004460D46EFF3058353B13C493C4840F26D
:104E0000BE4203F0C5F940F2BE41384803F08CFAC7
:104E100054EA050304D1FFF761FF0020BDE8F081EB
:104E20006FF001031E1B4FF0FF3363EB0507012EEC
:104E300077F1000356DA03F011FD06194FF0200355
:104E4000EFF3118883F31188BFF36F8F2948FEF7C2
:104E500061FF40B928492648812203F099F9812150
:104E6000254803F061FA254F2248FEF76FFFB86826
:104E7000234B1860FFF70EFBB86822462B4618300C
:104E8000204900F075F9BA681A48537B43F01003C3
:104E90005373FEF74DFF40B917491548C32203F07D
:104EA00077F9C321144803F03FFA4046FDF72CF987
:104EB000BB685B7BDB060AD50C490D4840F2DF423C
:104EC00003F066F940F2DF41084803F02DFA03F0E1
:104ED000C5FC301A66EB0601012871F10003B8BF6A
:104EE00000209BE76FF00106361BA7E7389E000005
:104EF000A68F00000C0A0020E08F0000D0090020DF
:104F0000080A0020A54A000038B504460D46EFF314
:104F1000058353B11149124840F2EE4203F038F9CB
:104F200040F2EE410D4803F0FFF96B1C08BFB4F1ED
:104F3000FF3F06D10B4B9868FFF77CFB4FF0FF302B
:104F400038BD20462946FFF751FF4FF47A7380FBA6
:104F50000334D80B40EA4440F2E700BF389E00001B
:104F6000A68F0000D0090020014B9868704700BF51
:104F7000D00900202DE9F04104464FF02003EFF363
:104F8000118683F31188BFF36F8F3E48FEF7C2FE90
:104F900040B93D493D48812203F0FAF881213A4861
:104FA00003F0C2F93748FEF7D1FE637B1A0712D52A
:104FB0003448FEF7BDFE40B933493448AC2203F013
:104FC000E7F8AC21304803F0AFF986F31188BFF35E
:104FD0006F8FBDE8F08123F0200242F00801D20972
:104FE00038D16173A36813B12046FFF705FA04F1C5
:104FF000180000F077F94FF0000804F15807A56D8C
:10500000BD4200D085BB0120FFF714FA204B9B68FE
:10501000A342CDD1EFF30583002BC9D11948FEF788
:1050200087FE40B918491948C32203F0B1F8C321DB
:10503000154803F079F93046FDF766F840F2016251
:105040001449124803F0A4F840F20161114803F03A
:105050006BF9ADE703F05F0343F0080321460E4808
:105060006373FFF7ABF9BDE72846FFF7C5F905F114
:10507000180000F037F92846C5F87880FFF74AFC99
:10508000BDE700BF0C0A0020E08F0000A68F0000E3
:10509000D0090020389E0000F809002008B5064815
:1050A000064A0749121A03F059FABDE80840054AB2
:1050B0000549064803F052BA0000002020010020F4
:1050C000B89E000000000000B89E00000000002014
:1050D000034B1B680BB9FCF7DBBC0020704700BF1B
:1050E000180A002030B5036868B10A4A5268904235
:1050F00009D043B1D3E90421D0E90445121945EBA5
:105100000101C3E90421426813605A600023C0E929
:10511000003330BD5800002038B5134B1C689C424A
:1051200008BF0024FFF7D4FF0546BCB1D4E9040151
:10513000401B61EBE571012871F1000311DB6FF099
:1051400000420023824273EB010400DA1046074B51
:105150001B6913B19842A8BF184638BD6FF00040D4
:10516000F5E70020F3E700BF58000020D009002039
:105170002DE9F74F1D466B1C08BFB2F1FF3F824679
:105180008B46144600F09C80036843B14E494F485B
:105190005D2202F0FDFF5D214B4803F0C5F8CAF81F
:1051A00008B04FF02003EFF3118B83F31188BFF3A6
:1051B0006F8F4748FEF7AEFD40B94649434881220C
:1051C00002F0E6FF8121434803F0AEF84048FEF7C5
:1051D000BDFD6FF001034FF0FF32B3EB040862EB4B
:1051E0000509B8F1000F79F100011CDB3A48D0E95C
:1051F00000105B1A62EB00021E1B62EB0507012E1A
:1052000077F10003BCBF01260027CAE90467334ACF
:10521000D2E9003693421DD1CAE90026C6F800A0A3
:10522000C2F804A02CE0FFF753FF631C009345F184
:1052300000030193DDE90023121843EBE073CAE990
:105240000423E4E7E01B65EB0801B342CAE904016B
:10525000E2D01B68002BDFD0D3E90478DAE90445FB
:10526000BC4275EB0801EDDA381B68EB0501C3E9B8
:1052700004015968CAE90031C1F800A0C3F804A0CC
:10528000136893420BD09A4509D1FFF745FF18B137
:10529000134B1B69834202D00021FCF7C7FB0C486B
:1052A000FEF746FD40B90B490848AC2202F070FFFA
:1052B000AC21084803F038F88BF31188BFF36F8FE7
:1052C00003B0BDE8F08F00BF5A9E0000A68F00001B
:1052D0001C0A0020E08F000020020020580000205F
:1052E000D009002038B504464FF02003EFF31185B4
:1052F00083F31188BFF36F8F1548FEF70BFD40B99C
:1053000014491548812202F043FF8121114803F01E
:105310000BF80F48FEF71AFD2368B3B12046FFF7DC
:10532000E1FE00240A48FEF703FD40B909490A4896
:10533000AC2202F02DFFAC21064802F0F5FF85F308
:105340001188BFF36F8F204638BD6FF01504E9E771
:105350001C0A0020E08F0000A68F000038B54FF037
:105360002003EFF3118583F31188BFF36F8F134888
:10537000FEF7D0FC40B912491248812202F008FF22
:1053800081210F4802F0D0FF0C48FEF7DFFCFFF749
:10539000C3FE04460948FEF7CBFC40B9084909485A
:1053A000AC2202F0F5FEAC21054802F0BDFF85F30A
:1053B0001188BFF36F8F204638BD00BF1C0A002044
:1053C000E08F0000A68F000070B504460D464FF038
:1053D0002003EFF3118683F31188BFF36F8F164814
:1053E000FEF798FC40B915491548812202F0D0FE1D
:1053F0008121124802F098FF0F48FEF7A7FCFFF743
:105400008BFE012805DDA04203DB29462046FCF780
:105410000DFB0948FEF78CFC40B908490848AC224E
:1054200002F0B6FEAC21054802F07EFF86F311883B
:10543000BFF36F8F70BD00BF1C0A0020E08F00001B
:10544000A68F00002DE9F04F85B00446FFF7FCF968
:105450004FF02003EFF3118983F31188BFF36F8FAF
:105460004C48FEF757FC40B94B494C48812202F0AA
:105470008FFE8121484802F057FF494F494EBB46F5
:105480004448DFF824A1FEF761FC3460D6F800C080
:10549000DAF800806246D7E90034D045CDE902341D
:1054A0004FEAE273CDE9002311D0B8F1000F0ED01E
:1054B000D8E90412DDE900348B4274EB02032ADAE6
:1054C000009BC81A019B62EB0301C8E90401002498
:1054D000009B029A03999A18019B346041EB0303E5
:1054E000CBE90023FFF718FE2146FCF79FFA294875
:1054F000FEF71EFC40B928492848AC2202F048FEBD
:10550000AC21254802F010FF89F31188BFF36F8F9B
:1055100005B0BDE8F08F0022DDE9024500236418E4
:10552000ACEB010045EBE1753060C8E9042340466F
:10553000C7E90045FFF7D6FD1648FEF7F9FB40B96D
:1055400015491648AC2202F023FEAC21124802F0A5
:10555000EBFE89F31188BFF36F8F4046D8F808300F
:1055600098474FF02003EFF3118983F31188BFF3BD
:105570006F8F0848FEF7CEFB40B9074907488122E4
:1055800002F006FE8121044802F0CEFE0148FEF73B
:10559000DDFB7BE71C0A0020E08F0000A68F0000E7
:1055A00020020020180A00205800002070B54FF09B
:1055B0002003EFF3118683F31188BFF36F8F164832
:1055C000FEF7A8FB40B915491548812202F0E0FD1D
:1055D0008121124802F0A8FE0F48FEF7B7FBFCF746
:1055E00057FA104BD3E9004524180B4845F1000544
:1055F000FEF79EFB40B909490948AC2202F0C8FDFC
:10560000AC21064802F090FE86F31188BFF36F8F3D
:105610002046294670BD00BF1C0A0020E08F000014
:10562000A68F000020020020024A0349034802F02E
:10563000AFBD00BF069100007E9E00008B9E000063
:1056400010B50C4C236813B10B4B1B682BB900F041
:10565000BBFA30B90122084B1A60012300202360F5
:1056600010BD0138062801D9044810BD044B53F879
:10567000200010BD200A0020240A0020FE8FFFFF1A
:10568000FC8D0000BFF34F8F0549064BCA6802F43A
:10569000E0621343CB60BFF34F8F00BFFDE700BF55
:1056A00000ED00E00400FA054FF0FE33002130B4B5
:1056B000064A074D074C2B6013602360064A074CCF
:1056C000EB606368C2F8001530BC184704148450BE
:1056D000001484500814845000008450600000209E
:1056E000024BD0E90012C3E90012704760000020AD
:1056F0002DE9F043154CDFF85C80002818BF044604
:10570000206883B040451DD016460D4620464FF414
:10571000DE7104F1040900F09BFE04F58C77484625
:1057200000F03EF9384601F075FA4A4638462B46F5
:105730000749009601F080FA08B9C4F8008003B068
:10574000BDE8F083002003B0BDE8F08324130020FF
:10575000215A0000A5BCC95AF0B50D4C0D4E0028C9
:1057600008BF2046076883B0B7420ED100261D4609
:1057700000F58C7033460096144601F0ADFA00280F
:1057800018BF34462C6003B0F0BD0348FBE700BFF0
:1057900024130020A5BCC95AE88FFFFF10B50446AA
:1057A00030B16368DB0602D500232360636010BD5F
:1057B000024B03485B689847F3E700BF6000002096
:1057C000188E000068B143683BB1DB0607D5BFF314
:1057D0005F8F0023036018467047034870470348F3
:1057E00070476FF4E0407047EA8FFFFFE98FFFFFDB
:1057F00010B5044620B1002211232260636010BD61
:105800000148FFF751FFF6E7408E0000A0B1436862
:1058100083B1DB060CD50122D0E8EF3FC0E8E12FD1
:105820000029F9D1012BF7D0BFF35F8F002070471B
:1058300003487047034870476FF4E040704700BF6B
:10584000E98FFFFFEA8FFFFF2DE9F041144C02685A
:10585000C368D0E90156C4E90263C4E90025114BCD
:105860000E684868104DC3E90060D1E90276086906
:10587000D5F81411C3E902761861CB060DD50023C3
:1058800005F58870C5E94433C5E96D339047236851
:1058900005F5DA70BDE8F0411847BDE8F08100BFBA
:1058A0007000002080000020241300202DE9F04328
:1058B000202B1D460646894690468BB026D8DBB283
:1058C00002AF31688DF804908DF8053006F10409B7
:1058D00021B9484600F062FE044640B90123022285
:1058E0004846336001A900F06DFE044638B13846E1
:1058F000202100F0ADFD20460BB0BDE8F0832A4624
:105900004146484600F05EFE0446F0E702AF194605
:10591000104600233A4601F0D3FA04460028E6D1A7
:105920002023B8461D46CCE7F0B5D0F8F430A7B038
:10593000002BD8BF02AE2CDD05460023D0F808416D
:1059400002AE0193A4F101073146D5F8F840902248
:10595000D0F8FC0001ABB7FA87F7A0477F090446EF
:1059600010B9019B3BB9A7B13046902100F070FD02
:10597000204627B0F0BD014632462846FFF796FF85
:1059800050B9D5F80031019A1344C5F80031002F01
:10599000EAD16FF03C04E7E70446204627B0F0BDAB
:1059A00070B50025044629461422C0F8F450F8309A
:1059B00002F0DFFD164B04F586761B6830469847EB
:1059C000204640F8045B00F0CFFD124B30461B68C8
:1059D0009847D8B9D4F8F430AB4211DC0121202526
:1059E00003EB830204EB8202C2F8FC000A480B447A
:1059F000C2F80451C2F8F800C2F80811C4F8F43033
:105A0000064B3046BDE870401B68184770BD00BFAC
:105A1000C4000020C800002065640000CC00002005
:105A20002DE9F047202A88B078D83E4B00F58679DA
:105A300004461B684846174688469847054640BBBB
:105A400040F20116D4F8F430002B63D02046FFF763
:105A50006BFF054600285FD1D4F8F430002B07DD3A
:105A6000D4E94002904203D3D4F80821012A14D08B
:105A7000013EE9D16FF03B056E463046202100F033
:105A8000E7FC294B48461B689847002818BF6FF071
:105A90001D05284608B0BDE8F0871F28E8D96E46E6
:105AA00029462022304604F1040A02F062FD314604
:105AB000504600F08FFD05460028DED1504600F02C
:105AC00067FD504600F050FD2946504600F066FD47
:105AD00005460028D1D150462022314600F072FD03
